:020000040800F2
:10000000400E00200D020008B50D0008730D000819
:10001000B10D00082103000883140008000000004F
:100020000000000000000000000000002D1000088B
:10003000570C0008000000003D0E00087911000870
:1000400027020008270200082702000827020008EC
:1000500027020008270200082702000827020008DC
:1000600027020008270200082702000827020008CC
:1000700027020008270200082702000827020008BC
:1000800027020008270200082702000827020008AC
:10009000250300082702000827020008270200089D
:1000A000270200082702000827020008270200088C
:1000B000270200082702000827020008270200087C
:1000C000270200082702000827020008270200086C
:1000D00027020008E911000827020008270200088B
:1000E000270200082702000827020008000000007D
:1000F0000000000000000000000000000000000000
:10010000000000000000000027020008270200088D
:10011000270200082702000827020008270200081B
:10012000270200082702000827020008270200080B
:1001300027020008270200082702000827020008FB
:1001400027020008270200082702000827020008EB
:1001500000F002F800F03AF80AA090E8000C82449F
:100160008344AAF10107DA4501D100F02FF8AFF27C
:10017000090EBAE80F0013F0010F18BFFB1A43F085
:10018000010318471C1700003C170000103A24BF59
:1001900078C878C1FAD8520724BF30C830C144BFEC
:1001A00004680C607047000000230024002500262E
:1001B000103A28BF78C1FBD8520728BF30C148BFCA
:1001C0000B6070471FB51FBD10B510BD00F075F86E
:1001D0001146FFF7F7FF01F023FA00F093F803B49C
:1001E000FFF7F2FF03BC01F076F90000EFF309809E
:1001F000704780F309887047EFF30880704780F3F9
:100200000888704740BA7047C0BA704709488047AD
:1002100009480047FEE7FEE7FEE7FEE7FEE7FEE7E8
:10022000FEE7FEE7FEE7FEE704480549054A064B00
:10023000704700007D1100085101000840080020AF
:10024000400E0020400A0020400A0020704710B5F0
:10025000203AC0F00B80B1E81850203AA0E81850BE
:10026000B1E81850A0E81850BFF4F5AF5FEA027C7F
:1002700024BFB1E81850A0E8185044BF18C918C0EE
:10028000BDE810405FEA827C24BF51F8043B40F88F
:10029000043B08BF7047D20728BF31F8023B48BF74
:1002A00011F8012B28BF20F8023B48BF00F8012BB2
:1002B00070477047704770477047754600F02CF8DC
:1002C000AE4605006946534620F00700854618B043
:1002D00020B5FFF7A9FFBDE820404FF000064FF022
:1002E00000074FF000084FF0000B21F00701AC466B
:1002F000ACE8C009ACE8C009ACE8C009ACE8C0098A
:100300008D46704710B50446AFF300802046BDE827
:100310001040FFF764BF000000487047DC07002072
:1003200000BFFEE710B50221084800F0B3FA60B143
:10033000074A0021054800F0E1FB0221034800F0D4
:100340000BF80349034800F06DFC10BD0064004049
:10035000E4040020B0000020B1F5007F3AD00FDCAB
:10036000202928D006DC01291CD004291DD0082909
:1003700040D11DE0402921D0B1F5807F3AD126E05F
:10038000B1F5004F31D006DCB1F5806F25D0B1F565
:10039000006F2FD124E0B1F5803F12D0B1F5003FBE
:1003A00028D111E0154A826025E00822C26022E0CF
:1003B0001022C2601FE0082202611CE010220261CC
:1003C00019E00822426016E01022426013E0042285
:1003D000426010E0042242600DE0042242600AE024
:1003E000002282610422426005E000228261042230
:1003F000426000E000BF00BF704700000101010043
:100400007FB505460C468DF80A5000208DF80B008C
:1004100001208DF80C006012ADF80000042000EB04
:10042000C41080B2ADF802004FF6FF70ADF80400C2
:100430004FF68470ADF806000020ADF808000120EA
:100440008DF80D00684600F077F87FBD3EB5044694
:1004500000F043FB00F0F4F8274800F051F868463C
:1004600000F0C4FB00208DF806008DF807008DF821
:10047000080001208DF8090000208DF80A008DF891
:100480000B008DF80200204600F018F900EB400048
:100490001A4911F810008DF80300204600F00EF9FB
:1004A00000EB4000154901EB400040788DF8040056
:1004B000204600F003F900EB4000104901EB40003A
:1004C00080788DF80500204600F0F8F800EB400039
:1004D0000A4901EB40008088ADF8000069460648F3
:1004E00000F071FA00210846FFF78AFF012202217D
:1004F000014800F05FFA3EBD006400401A00002091
:1005000010B504460B48844209D10121480600F089
:10051000A7FC00214FF0007000F0A2FC08E00121D0
:10052000880600F09DFC00214FF0806000F098FCF0
:1005300010BD00000064004010B50021837A012244
:1005400002FA03F13D4A126842F001023B4B1A6085
:100550003A4A1C3212688A43384B1C331A60027BB9
:10056000CAB9364A0C3212688A43344B0C331A60CB
:100570004288C38842EA0343304A4032847A42F8D0
:1005800034300288838842EA03432C4A4032847A1A
:1005900002EBC4025360027B012A19D1274A0C32B4
:1005A00012680A43254B0C331A604288038842EADA
:1005B0000343224A4032847A42F83430C288838826
:1005C00042EA03431D4A4032847A02EBC40253607C
:1005D000C27A3AB9194A121D12688A43174B1B1D79
:1005E0001A6006E0154A121D12680A43134B1B1DC0
:1005F0001A60028932B9114A143212688A430F4BC9
:1006000014331A600289012A06D10C4A1432126886
:100610000A430A4B14331A60427B012A06D1074A67
:100620001C3212680A43054B1C331A60034A1268D5
:1006300022F00102014B1A6010BD0000006600406C
:1006400008B50121152000F01BFC0121480600F02F
:10065000F7FB4FF40060ADF8000048208DF8030070
:1006600003208DF802006946124800F0F5FA4FF4B5
:100670008050ADF8000018208DF8030003208DF89D
:10068000020069460B4800F0E7FA4FF48070ADF8BD
:10069000000010208DF8030003208DF80200694649
:1006A000054800F0D9FA4FF48071034800F05FFB71
:1006B00008BD000000080140001001400146084646
:1006C0006D4BCA1A994277D044DC6C4BA0EB030205
:1006D000984272D022DC4CF25033A0EB03029842D5
:1006E0006CD010DCA0F58040A0F5626000286FD0CF
:1006F000A0F51C50103800286CD0A0F51C50103804
:10070000002869D1ACE0A2F51C501038002870D048
:10071000A0F56850983800285ED198E049F640432B
:10072000D01A9A4267D00BDCA2F50050A0F5E26027
:10073000002870D0A0F51C50103800284CD17DE066
:10074000A0F598508838B0B3A0F594403838002808
:1007500042D16AE04A4BD01A9A424DD01FDC494B35
:10076000A2EB03009A4250D010DCA2F50050A0F595
:10077000E26070B3A0F50040A0F5E25058B3A0F5D8
:10078000C040A0F5D470002873D141E0A0F54340EB
:10079000503878B33B4A52421044E8B92FE03A4B04
:1007A000C21A98421CD00ADC384A1044F0B1384AC8
:1007B000104488B917E03BE034E045E04DE03348B1
:1007C000104450B1314A104430B94FF00000704726
:1007D0004CE024E047E01FE04BE04FF00100F6E77B
:1007E0004FF00200F3E74FF00300F0E74FF0040092
:1007F000EDE72FE006E01EE04FF00500E7E74FF0E1
:100800000600E4E74FF00700E1E74FF00800DEE7FD
:100810004FF00900DBE714E04FF00A00D7E74FF094
:100820000B00D4E74FF00C00D1E74FF00D00CEE7FE
:100830004FF00E00CBE74FF00F00C8E74FF010006D
:10084000C5E74FF01100C2E74FF01200BFE74FF0CD
:100850001300BCE74FF01400B9E74FF01500B6E7FE
:100860004FF01600B3E74FF01700B0E74FF0180055
:10087000ADE74FF00000AAE7F04902008038010020
:1008800030570500A0860100E09304006079FEFF68
:1008900030FEFEFF70B504460D4600266069284014
:1008A000002871D0B5F5807F5CD010DC082D35D0E4
:1008B00006DC012D20D0022D24D0042D72D127E09A
:1008C000102D31D0202D35D0402D6BD138E0B5F52D
:1008D000004F60D009DCB5F5007F49D0B5F5806FD9
:1008E0004CD0B5F5006F5DD14FE0B5F5803F2DD010
:1008F000B5F5003F56D12FE0A0682D4900F0A2F9D0
:10090000064651E0E068032100F09CF906464BE002
:10091000E068082100F096F9064645E0E0681021FD
:1009200000F090F906463FE02069032100F08AF9C3
:10093000064639E02069082100F084F9064633E0D4
:100940002069102100F07EF906462DE0606808213C
:1009500000F078F9064627E06068102100F072F98F
:10096000064621E0A069012100F06CF906461BE073
:10097000A069022100F066F9064615E0A06904218D
:1009800000F060F906460FE00FE0A069702100F06A
:1009900059F9064608E06068042100F053F906465C
:1009A00002E0FFE7002600BF00E00026304670BDF1
:1009B000010101001AB143690B43436102E043693D
:1009C0008B434361704730B5024600200023146812
:1009D00024F002041460146844F00104146000E080
:1009E0005B1C546804F001041CB94FF6FF74A34269
:1009F000F6D1546804F001040CB900206CE08C7945
:100A0000012C04D1146844F08004146003E01468DD
:100A100024F080041460CC79012C04D1146844F0D3
:100A20004004146003E0146824F0400414600C7A5D
:100A3000012C04D1146844F02004146003E014680D
:100A400024F0200414604C7A012C04D1146844F082
:100A50001004146003E0146824F0100414608C7A0D
:100A6000012C04D1146844F00804146003E01468F5
:100A700024F008041460CC7A012C04D1146844F0EA
:100A80000404146003E0146824F0040414608C78F7
:100A9000A407CD7844EA05640D7944EA05444D790C
:100AA00044EA05540D886D1E2C43D461146824F06B
:100AB00001041460002300E05B1C546804F001048E
:100AC0001CB14FF6FF74A342F6D1546804F0010440
:100AD0000CB1002000E0012030BD08B514208DF8D5
:100AE000000001208DF8010000208DF80200012097
:100AF0008DF80300684600F05FF908BD10B500F5F9
:100B0000D87303EB01131B6803F004031372137A09
:100B100053B900F5D87303EB01131B6840F2FF745F
:100B200004EA5353136009E000F5D87303EB011393
:100B30001B686FF0604404EAD303536000F5D87378
:100B400003EB01131B6803F00203537200F5D87323
:100B500003EB01135B6803F00F03937200F5D87386
:100B600003EB01135B681B0AD37400F5D87303EB26
:100B700001139B68D37200F5D87303EB01139B68D4
:100B80001C0A147300F5D87303EB01139B681C0C4B
:100B9000547300F5D87303EB01139B681B0E93731A
:100BA00000F5D87303EB0113DB68D37300F5D8733A
:100BB00003EB0113DB681C0A147400F5D87303EB14
:100BC0000113DB681C0C547400F5D87303EB01139C
:100BD000DB681B0E937421B9C36843F02003C36024
:100BE00003E0036943F02003036110BD002181711C
:100BF000C171017241728172C1728170C170032131
:100C000001710221417101210180704710B5252237
:100C10000249034800F09EFC10BD0000F8040020CB
:100C2000B000002070B505460E46284600F06AFC6C
:100C300004460CB9002070BD3146204600F04DFC42
:100C40000120F8E70246002002EA01030BB101206F
:100C500000E00020704770472DE9F0410246002572
:100C60000026002000230024002791F803C00CF088
:100C70000F0591F803C00CF0100CBCF1000F03D06D
:100C800091F802C04CEA050591F800C0BCF1000FD4
:100C900031D0146800202BE04FF0010C0CFA00F367
:100CA000B1F800C00CEA03069E4220D183004FF049
:100CB0000F0C0CFA03F7BC4305FA03FC4CEA0404DE
:100CC00091F803C0BCF1280F06D14FF0010C0CFACB
:100CD00000FCC2F814C00AE091F803C0BCF1480F50
:100CE00005D14FF0010C0CFA00FCC2F810C0401CFA
:100CF0000828D1D31460B1F800C0BCF1FF0F34DD77
:100D0000546800202EE000F1080C4FF0010808FAAA
:100D10000CF3B1F800C00CEA03069E4221D1830017
:100D20004FF00F0C0CFA03F7BC4305FA03FC4CEA36
:100D3000040491F803C0BCF1280F05D100F1080CA0
:100D400008FA0CF8C2F8148091F803C0BCF1480FFF
:100D500007D100F1080C4FF0010808FA0CF8C2F8AE
:100D60001080401C0828CED35460BDE8F08141615A
:100D7000704700BFFEE7000008B50121082000F021
:100D80007FF84FF44050ADF8000010208DF80300BC
:100D900003208DF8020069460448FFF75DFF4FF419
:100DA00040510248FFF7E3FF08BD0000000C01407E
:100DB00000BFFEE77047000070B5002100230F223E
:100DC000C47804B3154C246804F4E064C4F5E0640A
:100DD000210AC1F10403CA40447804FA03F184787B
:100DE0001440214309010E4C0678A155047804F003
:100DF0001F050124AC4005786D11AD0005F1E0251B
:100E0000C5F8004109E0047804F01F050124AC4056
:100E1000044D0678761145F8264070BD0CED00E0D3
:100E200000E400E080E100E002490143024A116071
:100E3000704700000000FA050CED00E0704700006C
:100E400029B1064AD2690243044BDA6104E0034A3D
:100E5000D2698243014BDA61704700000010024002
:100E600029B1064A12690243044B1A6104E0034A9D
:100E700012698243014B1A61704700000010024062
:100E800029B1064A92690243044B9A6104E0034A7D
:100E900092698243014B9A61704700000010024042
:100EA0002DE9F04100210022002500230026002426
:100EB00000278C46DFF86081D8F8048008F00C0128
:100EC00021B1042907D0082959D109E0DFF84C8164
:100ED000C0F8008058E0DFF84481C0F8008053E09B
:100EE000DFF83481D8F8048008F47012DFF8288124
:100EF000D8F8048008F48035920C0D2A01D0921C99
:100F000000E0062235B9DFF8188102FB08F8C0F8C6
:100F1000008033E0DFF80081D8F82C8008F48036B8
:100F2000DFF8F480D8F82C8008F00F0808F10104ED
:100F300046B9DFF8E880B8FBF4F808FB02F8C0F81F
:100F400000801BE0DFF8D080D8F82C80C8F30318AD
:100F500008F10107DFF8C080D8F82C80C8F3032817
:100F600008F1020CDFF8B480B8FBF7F808FB0CF8C6
:100F7000B8FBF4F808FB02F8C0F8008004E0DFF8E2
:100F80009C80C0F8008000BF00BFDFF88C80D8F8DC
:100F9000048008F0F0010909DFF8888018F80130B2
:100FA000D0F8008028FA03F8C0F80480DFF86880E1
:100FB000D8F8048008F4E061090ADFF8688018F8BE
:100FC0000130D0F8048028FA03F8C0F80880DFF870
:100FD0004880D8F8048008F46051C90ADFF84480DA
:100FE00018F80130D0F8048028FA03F8C0F80C8013
:100FF000DFF82480D8F8048008F44041890BDFF83A
:10100000288018F80130D0F80C80B8FBF3F8C0F84D
:101010001080BDE8F08100000010024000127A004C
:1010200000093D00C8000020D8000020704710B51E
:1010300000F002F810BD00000CB5002001900090F7
:101040003F48006840F480303D49086000BF3C489C
:10105000006800F4003000900198401C0190009856
:1010600018B90198B0F5A06FF1D13548006800F4C7
:10107000003010B10120009001E0002000900098A5
:1010800001285CD12F48006840F010002D4908600D
:101090000846006820F0030008600846006840F039
:1010A00002000860264840682549486008464068B4
:1010B00048600846406840F4806048600846C06A5E
:1010C000214908401E49C8620846C06A1F490843B2
:1010D0001B49C8620846006840F08060086000BF95
:1010E0001748006800F000600028F9D014484068F4
:1010F00020F47C10124948600846406840F4E8102B
:1011000048600846006840F08070086000BF0C48E6
:10111000006800F000700028F9D00948406820F00D
:101120000300074948600846406840F002004860F4
:1011300000BF0348406800F00C000828F9D10CBD3E
:10114000001002400020024000F0FEFF7006010087
:10115000042808D14FF0E021096941F004014FF063
:10116000E022116107E04FF0E021096921F004015C
:101170004FF0E022116170477047000010B516482B
:10118000006840F0010014490860084640681349AF
:1011900008401149486008460068114908400E4956
:1011A00008600846006820F480200860084640680F
:1011B00020F4FE0048600846006820F0A050086057
:1011C0004FF47F0088600020C862FFF730FF4FF0C7
:1011D00000600449086010BD001002400000FFF0EC
:1011E000FFFFF6FE08ED00E010B540F2255106487D
:1011F00000F086F838B1044800F03EF9C4B2214648
:10120000024800F045F910BD00380140DC00002024
:1012100010B586B00446012144F20400FFF730FE09
:101220004FF40070ADF8140003208DF8160018205C
:101230008DF8170005A91C48FFF70EFD4FF48060DC
:10124000ADF8140004208DF8170005A91648FFF723
:1012500003FD25208DF8000003208DF801008DF896
:10126000020001208DF803006846FFF7A5FD0194F8
:101270000020ADF80800ADF80A00ADF80C00ADF89C
:1012800010000C20ADF80E0001A9084800F088F805
:10129000012240F22551054800F05CF80121034885
:1012A00000F022F806B010BD0008014000380140EF
:1012B00038B5044620680A490840B0F1005F0ED1F5
:1012C00060680090074900980860012080F310884A
:1012D00000BF2068FEF793FF02480068804738BDD2
:1012E0000000FE2F1400002021B1828942F4005238
:1012F000828104E082894DF6FF731A408281704733
:1013000070B50246002400230025002040F66A162E
:10131000B14200D100BFC1F3421501F01F03012605
:1013200006FA03F3012D02D19689334006E0022D1F
:1013300002D1168A334001E0968A33400C1201260E
:1013400006FA04F41688344013B10CB1012000E011
:10135000002070BDF0B503460024002600250020C3
:1013600040F66A17B94200D100BF1846C1F34214D3
:1013700001F01F06012707FA06F5012C01D10C30F8
:1013800004E0022C01D1103000E014301AB10768DB
:101390002F43076002E00768AF430760F0BD00001D
:1013A0002DE9F04786B005460E460024A24600BF50
:1013B000A1460027B08900B100BF2F462C8A4CF609
:1013C000FF700440F08804432C82AC894EF6F31081
:1013D0000440B08831890843718908430443AC81D3
:1013E000AC8A4FF6FF400440B0890443AC8201A8A8
:1013F000FFF756FD1F48874202D1DDF810A001E03B
:10140000DDF80CA0A88900F4004040B10AEBCA0046
:1014100000EB0A1031684900B0FBF1F807E00AEB75
:10142000CA0000EB0A1031688900B0FBF1F86420B3
:10143000B8FBF0F004012009642101FB1089A889A0
:1014400000F4004040B1322000EBC900B0FBF1F0E5
:1014500000F00700044308E0322000EB091064218B
:10146000B0FBF1F000F00F0004432C8106B0BDE8A2
:10147000F08700000038014001468888C0F308006A
:10148000704700BFFEE700218180018041807047E6
:1014900010B502465088C31700EB93539B12A0EB84
:1014A00083231488A34205D19388B3F5806F01D1BB
:1014B000012010BD5388901DC1545388581CC31778
:1014C00000EB93539B12A0EB832353809088401C26
:1014D00090800220EDE700BF704710B503460A4632
:1014E00054685C60947A9C72147A1C72547A5C72B0
:1014F000D2F80B40C3F80B40D2F80F40C3F80F40AE
:1015000010BD000070B504460CB9002070BD207AF3
:10151000012801D10020F9E72168481C206001EB77
:101520008100216901EB8005E1682068884201D3D0
:1015300000202060D4E90001884201D101202072FE
:10154000142203492846FEF782FE2846DEE7000003
:101550008C1800082DE9F04104460F46154600207E
:10156000206060602072E560276100260AE006EBDB
:101570008602216901EB820014220449FEF767FE0E
:10158000701CC6B2AE42F2DBBDE8F0818C180008D8
:1015900010B56FF00400FFF7DBFD0A4800680A4948
:1015A000B0FBF1F0094908700846007800EB4001F3
:1015B000C1EBC0104FF6FF7101EAC000044908807A
:1015C00010BD00000000002000127A00C4000020BE
:1015D000C60000200146114A12884A434FF0E0231A
:1015E0005A6100229A611A46126942F001021A6198
:1015F00000BF4FF0E022106900F001021AB100F4C0
:101600008032002AF5D04FF0E022126922F0010268
:101610004FF0E0231A6100229A617047C600002053
:10162000144800681449884202D11448FFF740FE6C
:10163000002080F3108800BF4FF4A060FFF7F4FB98
:10164000FFF7A6FFFFF798FB0D48FEF7FFFEFFF739
:10165000DDFA4FF47A30FFF7DBFD0A48FFF713FF9E
:101660000120094908604FF47A70FFF7B3FF00BF0B
:10167000FEE7000000280008123456780030000809
:1016800048E80100DC000020B48121420000211064
:10169000422063308440A550C660E77008812991DC
:1016A0004AA16BB18CC1ADD1CEE1EFF13112100284
:1016B00073325222B5529442F772D662399318832C
:1016C0007BB35AA3BDD39CC3FFF3DEE36224433450
:1016D00020040114E664C774A44485546AA54BB57C
:1016E00028850995EEE5CFF5ACC58DD55336722624
:1016F00011163006D776F6669556B4465BB77AA7CC
:1017000019973887DFF7FEE79DD7BCC7C448E5586F
:101710008668A7784008611802282338CCC9EDD91B
:101720008EE9AFF9488969990AA92BB9F55AD44AC3
:10173000B77A966A711A500A333A122AFDDBDCCB6B
:10174000BFFB9EEB799B588B3BBB1AABA66C877C8F
:10175000E44CC55C222C033C600C411CAEED8FFDBB
:10176000ECCDCDDD2AAD0BBD688D499D977EB66E63
:10177000D55EF44E133E322E511E700E9FFFBEEF0B
:10178000DDDFFCCF1BBF3AAF599F788F8891A981CD
:10179000CAB1EBA10CD12DC14EF16FE18010A100B7
:1017A000C230E3200450254046706760B9839893A7
:1017B000FBA3DAB33DC31CD37FE35EF3B102901207
:1017C000F322D2323542145277625672EAB5CBA573
:1017D000A89589856EF54FE52CD50DC5E234C32457
:1017E000A01481046674476424540544DBA7FAB747
:1017F0009987B8975FE77EF71DC73CD7D326F236A7
:101800009106B01657667676154634564CD96DC992
:101810000EF92FE9C899E9898AB9ABA944586548F6
:1018200006782768C018E1088238A3287DCB5CDBE6
:101830003FEB1EFBF98BD89BBBAB9ABB754A545A46
:10184000376A167AF10AD01AB32A923A2EFD0FEDB2
:101850006CDD4DCDAABD8BADE89DC98D267C076C96
:10186000645C454CA23C832CE01CC10C1FEF3EFF86
:101870005DCF7CDF9BAFBABFD98FF89F176E367EE6
:10188000554E745E932EB23ED10EF01E0000000045
:101890000000000000000000000000000000000048
:1018A000C018000800000020DC0000008C010008C7
:1018B0009C190008DC000020640D0000A80100084D
:1018C00000A24A040000000000000000010203041E
:1018D00006070809000000000000000900000300DE
:1018E000000700000400010C00000D00000F0000C4
:1018F0000300000C00000400000F00000400000FB3
:1019000000000500000E00000700000F00000800A6
:10191000000D00000A00000F00000A00000C00008B
:101920000F00000D00000F00000700001900000567
:1019300000002400000C00001400000500002D0031
:10194000000D00001900000F00001900000D00003C
:101950001E00000C00002800000D00002D00000FEC
:1019600000003200000D00004B00000F000064007A
:101970000000000000000000000000002500000042
:10198000F804002000000000000000000102030431
:0C1990000102030406070809020406080F
:04000005080001519D
:00000001FF
