:020000040800F2
:100000009006002095020008A50400086504000879
:10001000A1040008450300088B0A00080000000046
:10002000000000000000000000000000E1060008E1
:1000300049030008000000002D0500082D080008F5
:10004000AF020008AF020008AF020008AF020008CC
:10005000AF020008AF020008AF020008AF020008BC
:10006000AF020008AF020008AF020008AF020008AC
:10007000AF020008AF020008AF020008AF0200089C
:10008000AF020008AF020008AF020008AF0200088C
:10009000AF020008AF020008AF020008AF0200087C
:1000A000AF020008AF020008AF020008AF0200086C
:1000B000AF020008AF020008AF020008AF0200085C
:1000C000AF020008AF020008AF020008AF0200084C
:1000D000AF0200089D080008AF020008AF02000848
:1000E000AF020008AF020008AF02000800000000E5
:1000F0000000000000000000000000000000000000
:100100000000000000000000AF020008AF0200087D
:10011000AF020008AF020008AF020008AF020008FB
:10012000AF020008AF020008AF020008AF020008EB
:10013000AF020008AF020008AF020008AF020008DB
:10014000AF020008AF020008AF020008AF020008CB
:1001500000F002F800F03AF80AA090E8000C82449F
:100160008344AAF10107DA4501D100F02FF8AFF27C
:10017000090EBAE80F0013F0010F18BFFB1A43F085
:1001800001031847400A0000600A0000103A24BF2B
:1001900078C878C1FAD8520724BF30C830C144BFEC
:1001A00004680C607047000000230024002500262E
:1001B000103A28BF78C1FBD8520728BF30C148BFCA
:1001C0000B6070471FB51FBD10B510BD00F087F85C
:1001D0001146FFF7F7FF00F041F800F0A5F803B46F
:1001E000FFF7F2FF03BC00F052FC0000EFF30980C0
:1001F000704780F309887047EFF30880704780F3F9
:100200000888704740BA7047C0BA7047002106E0BE
:100210000A2100BF0A1EA1F1010399B2FAD1021E00
:10022000A0F1010398B2F3D17047002107E042F634
:10023000E06100BF0A1EA1F1010399B2FAD1021ECA
:10024000A0F1010398B2F2D1704710B50F480068D1
:10025000401C10B10D4800F02FFB10BD4FF4A06002
:1002600000F05AF900F016FC4FF47A3000F05AFC16
:1002700000F0FAF80120064908604FF47A7000F0A7
:100280002BFCFFF7E2FF00BFFEE700000030000894
:10029000B48121420948804709480047FEE7FEE74C
:1002A000FEE7FEE7FEE7FEE7FEE7FEE7FEE7FEE726
:1002B00004480549054A064B70470000310800080C
:1002C00051010008900000209006002090020020BC
:1002D000900200207047704770477047704775461E
:1002E00000F02CF8AE4605006946534620F00700A2
:1002F000854618B020B5FFF7DBFFBDE820404FF082
:1003000000064FF000074FF000084FF0000B21F0FF
:100310000701AC46ACE8C009ACE8C009ACE8C009CC
:10032000ACE8C0098D46704710B50446AFF30080B5
:100330002046BDE81040FFF752BF0000004870475C
:100340003000002000BFFEE770472DE9F041024673
:1003500000250026002000230024002791F803C078
:100360000CF00F0591F803C00CF0100CBCF1000F5D
:1003700003D091F802C04CEA050591F800C0BCF129
:10038000000F31D0146800202BE04FF0010C0CFA64
:1003900000F3B1F800C00CEA03069E4220D18300AE
:1003A0004FF00F0C0CFA03F7BC4305FA03FC4CEAC0
:1003B000040491F803C0BCF1280F06D14FF0010CE2
:1003C0000CFA00FCC2F814C00AE091F803C0BCF1BA
:1003D000480F05D14FF0010C0CFA00FCC2F810C018
:1003E000401C0828D1D31460B1F800C0BCF1FF0F45
:1003F00034DD546800202EE000F1080C4FF00108B5
:1004000008FA0CF3B1F800C00CEA03069E4221D1B1
:1004100083004FF00F0C0CFA03F7BC4305FA03FC02
:100420004CEA040491F803C0BCF1280F05D100F197
:10043000080C08FA0CF8C2F8148091F803C0BCF15B
:10044000480F07D100F1080C4FF0010808FA0CF82A
:10045000C2F81080401C0828CED35460BDE8F0815B
:100460004161704700BFFEE708B50121082000F098
:100470005FF84FF44050ADF8000010208DF80300F5
:1004800003208DF8020069460448FFF75EFF4FF431
:1004900040510248FFF7E4FF08BD0000000C014096
:1004A00000BFFEE77047000070B5002100230F2257
:1004B000C47804B3154C246804F4E064C4F5E06423
:1004C000210AC1F10403CA40447804FA03F1847894
:1004D0001440214309010E4C0678A155047804F01C
:1004E0001F050124AC4005786D11AD0005F1E02534
:1004F000C5F8004109E0047804F01F050124AC4070
:10050000044D0678761145F8264070BD0CED00E0EC
:1005100000E400E080E100E002490143024A11608A
:10052000704700000000FA050CED00E07047000085
:1005300029B1064A92690243044B9A6104E0034AD6
:1005400092698243014B9A6170470000001002409B
:100550002DE9F0410021002200250023002600247F
:1005600000278C46DFF86081D8F8048008F00C0181
:1005700021B1042907D0082959D109E0DFF84C81BD
:10058000C0F8008058E0DFF84881C0F8008053E0F0
:10059000DFF83481D8F8048008F47012DFF828817D
:1005A000D8F8048008F48035920C0D2A01D0921CF2
:1005B00000E0062235B9DFF81C8102FB08F8C0F81C
:1005C000008033E0DFF80081D8F82C8008F4803612
:1005D000DFF8F480D8F82C8008F00F0808F1010447
:1005E00046B9DFF8EC80B8FBF4F808FB02F8C0F875
:1005F00000801BE0DFF8D080D8F82C80C8F3031807
:1006000008F10107DFF8C080D8F82C80C8F3032870
:1006100008F1020CDFF8B880B8FBF7F808FB0CF81B
:10062000B8FBF4F808FB02F8C0F8008004E0DFF83B
:100630009C80C0F8008000BF00BFDFF88C80D8F835
:10064000048008F0F0010909DFF88C8018F8013007
:10065000D0F8008028FA03F8C0F80480DFF868803A
:10066000D8F8048008F4E061090ADFF86C8018F813
:100670000130D0F8048028FA03F8C0F80880DFF8C9
:100680004880D8F8048008F46051C90ADFF848802F
:1006900018F80130D0F8048028FA03F8C0F80C806C
:1006A000DFF82480D8F8048008F44041890BDFF893
:1006B0002C8018F80130D0F80C80B8FBF3F8C0F8A3
:1006C0001080BDE8F08100000010024000127A00A6
:1006D00040787D0100093D001C0000202C00002016
:1006E000704710B500F002F810BD00000CB50020F6
:1006F000019000903F48006840F480303D49086018
:1007000000BF3C48006800F4003000900198401C95
:100710000190009818B90198B0F5A06FF1D1354853
:10072000006800F4003010B10120009001E00020CA
:100730000090009801285CD12F48006840F010001C
:100740002D4908600846006820F00300086008464C
:10075000006840F00200086026484068254948606B
:100760000846406848600846406840F48060486039
:100770000846C06A214908401E49C8620846C06A46
:100780001F4908431B49C8620846006840F0806062
:10079000086000BF1748006800F000600028F9D02A
:1007A0001448406820F47C101249486008464068AC
:1007B00040F4E81048600846006840F08070086027
:1007C00000BF0C48006800F000700028F9D009480C
:1007D000406820F00300074948600846406840F040
:1007E0000200486000BF0348406800F00C00082881
:1007F000F9D10CBD001002400020024000F0FEFFC5
:1008000044060100042808D14FF0E021096941F0B5
:1008100004014FF0E022116107E04FF0E021096987
:1008200021F004014FF0E022116170477047000091
:1008300010B51648006840F00100144908600846E9
:10084000406813490840114948600846006811494A
:1008500008400E4908600846006820F480200860BF
:100860000846406820F4FE0048600846006820F012
:10087000A05008604FF47F0088600020C862FFF736
:1008800030FF4FF000600449086010BD00100240C6
:100890000000FFF0FFFFF6FE08ED00E010B540F2AB
:1008A0002551044800F030F818B1024800F0E8F88B
:1008B000C4B210BD0038014038B5044620680A496A
:1008C0000840B0F1005F0ED16068009007490098C1
:1008D0000860012080F3108800BF2068FFF78FFCBC
:1008E00002480068804738BD0000FE2F1400002039
:1008F00021B1828942F40052828104E082894DF65E
:10090000FF731A408281704770B5024600240023AD
:100910000025002040F66A16B14200D100BFC1F3A5
:10092000421501F01F03012606FA03F3012D02D13F
:100930009689334006E0022D02D1168A334001E049
:10094000968A33400C12012606FA04F416883440C5
:1009500013B10CB1012000E0002070BDF0B50346DA
:10096000002400260025002040F66A17B94200D175
:1009700000BF1846C1F3421401F01F06012707FA11
:1009800006F5012C01D10C3004E0022C01D110300D
:1009900000E014301AB107682F43076002E00768CF
:1009A000AF430760F0BD00002DE9F04786B0054673
:1009B0000E460024A24600BFA1460027B08900B120
:1009C00000BF2F462C8A4CF6FF700440F088044389
:1009D0002C82AC894EF6F3100440B088318908436C
:1009E000718908430443AC81AC8A4FF6FF40044050
:1009F000B0890443AC8201A8FFF7AAFD1F488742D3
:100A000002D1DDF810A001E0DDF80CA0A88900F407
:100A1000004040B10AEBCA0000EB0A1031684900FF
:100A2000B0FBF1F807E00AEBCA0000EB0A103168EE
:100A30008900B0FBF1F86420B8FBF0F00401200954
:100A4000642101FB1089A88900F4004040B13220E4
:100A500000EBC900B0FBF1F000F00700044308E030
:100A6000322000EB09106421B0FBF1F000F00F0020
:100A700004432C8106B0BDE8F08700000038014037
:100A800001468888C0F30800704700BFFEE700BF3A
:100A90007047000010B56FF00400FFF7B3FE0A487E
:100AA00000680A49B0FBF1F009490870084600786F
:100AB00000EB4001C1EBC0104FF6FF7101EAC0002E
:100AC0000449088010BD00000000002000127A00D8
:100AD000180000201A0000200146114A12884A43DB
:100AE0004FF0E0235A6100229A611A46126942F0DF
:100AF00001021A6100BF4FF0E022106900F001020C
:100B00001AB100F48032002AF5D04FF0E0221269C9
:100B100022F001024FF0E0231A6100229A6170472F
:100B20001A00002010B586B00446012144F20400EA
:100B3000FFF7FEFC4FF40070ADF8140003208DF8B1
:100B4000160018208DF8170005A91C48FFF7FDFBBB
:100B50004FF48060ADF8140004208DF8170005A94B
:100B60001648FFF7F2FB25208DF8000003208DF8D2
:100B700001008DF8020001208DF803006846FFF7A0
:100B800093FC01940020ADF80800ADF80A00ADF820
:100B90000C00ADF810000C20ADF80E0001A90848BB
:100BA000FFF702FF012240F225510548FFF7D6FE6C
:100BB00001210348FFF79CFE06B010BD000801406C
:100BC00000380140E40B0008000000203000000065
:100BD0008C010008140C00083000002060060000A2
:100BE000A801000800A24A04000000000000000064
:100BF00001020304060708090000000000000000CD
:100C000000000000010203040102030406070809B2
:040C100002040608CC
:04000005080001519D
:00000001FF
