:020000040800F2
:10000000B81300200D020008450A00085B0900082B
:10001000410A00087D040008BB130008000000002E
:10002000000000000000000000000000690E000851
:100030008104000800000000410B0008B50F000813
:1000400027020008270200082702000827020008EC
:1000500027020008270200082702000827020008DC
:1000600027020008270200082702000827020008CC
:1000700027020008270200082702000827020008BC
:1000800027020008270200082702000827020008AC
:10009000270200082702000827020008270200089C
:1000A000270200082702000827020008270200088C
:1000B000270200082702000827020008270200087C
:1000C000270200082702000827020008270200086C
:1000D0002702000825100008270200082702000850
:1000E000270200082702000827020008000000007D
:1000F0000000000000000000000000000000000000
:10010000000000000000000027020008270200088D
:10011000270200082702000827020008270200081B
:10012000270200082702000827020008270200080B
:1001300027020008270200082702000827020008FB
:1001400027020008270200082702000827020008EB
:1001500000F002F800F03AF80AA090E8000C82449F
:100160008344AAF10107DA4501D100F02FF8AFF27C
:10017000090EBAE80F0013F0010F18BFFB1A43F085
:1001800001031847BC170000DC170000103A24BF19
:1001900078C878C1FAD8520724BF30C830C144BFEC
:1001A00004680C607047000000230024002500262E
:1001B000103A28BF78C1FBD8520728BF30C148BFCA
:1001C0000B6070471FB51FBD10B510BD00F0E1F802
:1001D0001146FFF7F7FF01F051F900F0FFF803B403
:1001E000FFF7F2FF03BC01F030F90000EFF30980E4
:1001F000704780F309887047EFF30880704780F3F9
:100200000888704740BA7047C0BA704709488047AD
:1002100009480047FEE7FEE7FEE7FEE7FEE7FEE7E8
:10022000FEE7FEE7FEE7FEE704480549054A064B00
:1002300070470000B90F000851010008B80D0020F8
:10024000B8130020B80F0020B80F00207047032A11
:1002500040F2308010F0030C00F0158011F8013BE3
:10026000BCF1020F624498BF11F801CB00F8013BCA
:1002700038BF11F8013BA2F1040298BF00F801CB8E
:1002800038BF00F8013B11F0030300F05080083A3A
:10029000C0F0088051F8043B083A51F804CBA0E8BC
:1002A0000810F5E7121D5CBF51F8043B40F8043B11
:1002B000AFF30080D20724BF11F8013B11F801CB46
:1002C00048BF11F8012B24BF00F8013B00F801CB17
:1002D00048BF00F8012B70474FF0000200B51346ED
:1002E00094469646203922BFA0E80C50A0E80C5056
:1002F000B1F12001BFF4F7AF090728BFA0E80C5007
:1003000048BF0CC05DF804EB890028BF40F8042BFF
:1003100008BF704748BF20F8022B11F0804F18BF6C
:1003200000F8012B7047704770477047704710B551
:10033000203AC0F00B80B1E81850203AA0E81850DD
:10034000B1E81850A0E81850BFF4F5AF5FEA027C9E
:1003500024BFB1E81850A0E8185044BF18C918C00D
:10036000BDE810405FEA827C24BF51F8043B40F8AE
:10037000043B08BF7047D20728BF31F8023B48BF93
:1003800011F8012B28BF20F8023B48BF00F8012BD1
:100390007047754600F02CF8AE4605006946534696
:1003A00020F00700854618B020B5FFF73DFFBDE8F7
:1003B00020404FF000064FF000074FF000084FF0CC
:1003C000000B21F00701AC46ACE8C009ACE8C0095D
:1003D000ACE8C009ACE8C0098D46704710B50446CA
:1003E000AFF300802046BDE81040FFF7F8BE0000E4
:1003F00000487047540D00202DE9F041A0B006469A
:100400000D46174680216846FFF766FF0024AA22A2
:100410002146641C0DF80120A81DC2B22146641CAF
:100420000DF801202146641C0DF801700DEB04004D
:100430002A463146FFF70BFF6019C4B221466846D1
:1004400001F006F880464FEA28222046611CCCB213
:100450000DF8002008F0FF022046611CCCB20DF818
:10046000002055222046611CCCB20DF80020214608
:10047000684600F03BFE20B0BDE8F08100BFFEE71B
:100480007047000010B56FF0040000F07FFD0A48CF
:1004900000680A49B0FBF1F0094908700846007885
:1004A00000EB4001C1EBC0104FF6FF7101EAC00044
:1004B0000449088010BD00000000002000127A00EE
:1004C00030000020320000200149C8607047000061
:1004D0000020024030B5044604254FF4302000F0DF
:1004E00085F80546042D17D10C48006940F002003C
:1004F0000A49086108464461006940F0400008610B
:100500004FF4302000F072F805460448006941F6C7
:10051000FD71084001490861284630BD00200240B5
:1005200004200B49C96801F0010109B101200EE066
:100530000749C96801F0040109B1022007E0044934
:10054000C96801F0100109B1032000E004207047E0
:10055000002002400348006940F080000149086122
:10056000704700000020024078B506460C4604257E
:1005700000200090E80200F039F80546042D24D14F
:100580001348006940F00100114908613480E80215
:1005900000F02CF80546042D10D1B01C0090200C62
:1005A00000990880E80200F021F805460848006933
:1005B00041F6FE7108400649086106E004480069FA
:1005C00041F6FE71084002490861284678BD0000E6
:1005D00000200240024803494860034848607047D1
:1005E0002301674500200240AB89EFCD00B50246EC
:1005F0000423FFF795FF034603E0FFF791FF03464F
:10060000521E012B01D1002AF7D102B90523184649
:1006100000BD2DE9F0410246002500260020002300
:100620000024002791F803C00CF00F0591F803C0D7
:100630000CF0100CBCF1000F03D091F802C04CEA92
:10064000050591F800C0BCF1000F31D014680020FE
:100650002BE04FF0010C0CFA00F3B1F800C00CEAEB
:1006600003069E4220D183004FF00F0C0CFA03F7D3
:10067000BC4305FA03FC4CEA040491F803C0BCF146
:10068000280F06D14FF0010C0CFA00FCC2F814C080
:100690000AE091F803C0BCF1480F05D14FF0010CFE
:1006A0000CFA00FCC2F810C0401C0828D1D314601A
:1006B000B1F800C0BCF1FF0F34DD546800202EE01B
:1006C00000F1080C4FF0010808FA0CF3B1F800C073
:1006D0000CEA03069E4221D183004FF00F0C0CFA66
:1006E00003F7BC4305FA03FC4CEA040491F803C089
:1006F000BCF1280F05D100F1080C08FA0CF8C2F87B
:10070000148091F803C0BCF1480F07D100F1080C28
:100710004FF0010808FA0CF8C2F81080401C0828B5
:10072000CED35460BDE8F081416170477047704797
:10073000704700002DE9FC5F06468946344625785F
:1007400094F8018076480078A84243D1A078010649
:10075000E07841EA0041207941EA002061790843CC
:1007600000907049009808446F490860A07901061C
:10077000E07941EA0041207A41EA0020617A0843A9
:100780006A49086000206A490860012000F05AFEAA
:10079000FFF720FF67496448006800F0C3FC824609
:1007A000FFF7D8FE002000F04DFE207840F0F0006A
:1007B000207084F80180BAF1040F03D158484079C1
:1007C000A07002E056488079A070012203212046E3
:1007D000FFF712FE52484078A8424BD1207840F0F3
:1007E000F000207084F80180514800684F49096882
:1007F000884219D24E480068B0F5006F14D2002725
:100800000BE0A01CC15D4A4802680068401C484BD0
:10081000186049488154781CC7B2A9F10200B84257
:10082000EFDC802800DA05E041480068B0F5006F91
:1008300020D300BF012000F005FEFFF7CBFE3C48AF
:100840003D4902683848006800F0A8FC8246FFF77E
:1008500081FE002000F0F6FD40F602013648FFF769
:100860003BFD0020324908602F48006800F5006019
:100870002D4908602A48C078A8421BD1A0780106FB
:10088000E07841EA0041207941EA0020617908439B
:100890000190207840F0F000207084F8018020481A
:1008A0004079A070012203212046FFF7A5FD0198A1
:1008B00000F0CCFB1A488078A84216D1207840F08E
:1008C000F000207084F801800020A0700121E17008
:1008D0000021217161715521A171E1712172617253
:1008E00001220A212046FFF787FD0D480079A84222
:1008F00014D1A0780106E07841EA0041207941EA6C
:100900000020617940EA010BBBF1AA3F06D10548FE
:100910000068401C10B1034800F024FCBDE8FC9FB7
:1009200018000020003000082800002020000020CF
:1009300024000020000001085004002008B569468A
:10094000044800F041FD022803D19DF8000000F0AA
:10095000F7F908BD48000020704700BFFEE700001F
:100960004CF6CC4001490860704700000030004060
:1009700070B505460C4645F2555000F01FF8284664
:1009800000F010F8204600F013F800F003F8FFF72D
:10099000E7FF70BD4AF6AA200149086070470000D1
:1009A00000300040014948607047000000300040BE
:1009B000014988607047000000300040014908602C
:1009C000704700000030004000B5A1B084216846A7
:1009D000FFF782FC0B48007940F0F0008DF8000032
:1009E00055208DF8020055218DF803108DF8041064
:1009F0008DF80510012206216846FFF7FDFC21B0A5
:100A000000BD00001800002008B50121082000F0FA
:100A100099F84FF44050ADF8000010208DF8030015
:100A200003208DF8020069460448FFF7F2FD4FF4F9
:100A300040510248FFF778FE08BD0000000C01405D
:100A400000BFFEE77047000070B5002100230F22B1
:100A5000C47804B3154C246804F4E064C4F5E0647D
:100A6000210AC1F10403CA40447804FA03F18478EE
:100A70001440214309010E4C0678A155047804F076
:100A80001F050124AC4005786D11AD0005F1E0258E
:100A9000C5F8004109E0047804F01F050124AC40CA
:100AA000044D0678761145F8264070BD0CED00E047
:100AB00000E400E080E100E002490143024A1160E5
:100AC000704700000000FA050CED00E02DE9F04150
:100AD000A2B005460C46842101A8FFF7FDFBE11EEC
:100AE000284600F0B5FC0746281910F8020C291911
:100AF00011F8031C40EA0128B84502D022B0BDE835
:100B0000F081A8788DF80400A21FE91C0DF1050002
:100B1000FFF79DFB094E0BE09DF8040031788842F9
:100B200005D1A01FC1B20DF10500726890470836CB
:100B300070680028F0D100BFE0E70000101900083D
:100B40007047000029B1064A92690243044B9A613A
:100B500004E0034A92698243014B9A6170470000A6
:100B6000001002400348406A40F08070014948622A
:100B700070470000001002402DE9F04100210022E2
:100B8000002500230026002400278C46DFF8608122
:100B9000D8F8048008F00C0121B1042907D00829F5
:100BA00059D109E0DFF84C81C0F8008058E0DFF847
:100BB0004481C0F8008053E0DFF83481D8F8048025
:100BC00008F47012DFF82881D8F8048008F4803522
:100BD000920C0D2A01D0921C00E0062235B9DFF8F4
:100BE000188102FB08F8C0F8008033E0DFF80081CC
:100BF000D8F82C8008F48036DFF8F480D8F82C8000
:100C000008F00F0808F1010446B9DFF8E880B8FBE6
:100C1000F4F808FB02F8C0F800801BE0DFF8D08091
:100C2000D8F82C80C8F3031808F10107DFF8C0805A
:100C3000D8F82C80C8F3032808F1020CDFF8B48040
:100C4000B8FBF7F808FB0CF8B8FBF4F808FB02F85F
:100C5000C0F8008004E0DFF89C80C0F8008000BF8E
:100C600000BFDFF88C80D8F8048008F0F001090993
:100C7000DFF8888018F80130D0F8008028FA03F8EF
:100C8000C0F80480DFF86880D8F8048008F4E061D8
:100C9000090ADFF8688018F80130D0F8048028FAD3
:100CA00003F8C0F80880DFF84880D8F8048008F41A
:100CB0006051C90ADFF8448018F80130D0F8048088
:100CC00028FA03F8C0F80C80DFF82480D8F80480F4
:100CD00008F44041890BDFF8288018F80130D0F87B
:100CE0000C80B8FBF3F8C0F81080BDE8F08100007C
:100CF0000010024000127A0000093D00340000207C
:100D00004400002010B501460022002300204A11B3
:100D1000012A02D1094C236806E0022A02D1074CBD
:100D2000236A01E0054C636A01F01F02012494402C
:100D30001C400CB1012000E0002010BD001002405A
:100D400010B504464448007838B9AA2C05D10120D2
:100D500041490870414804707CE03F480078012810
:100D60000DD1C82C0BDA02203B4908703B48447077
:100D7000A01F3B49087000203A4908706AE03648D5
:100D80000078022805D10320334908703348847065
:100D900060E03148007803281AD1314800780028F3
:100DA00016DD304800782F490978491C2D4A11700A
:100DB000C01C2A490C542A480078401E2849087053
:100DC00008460078002845D104202349087041E0F6
:100DD0002148007804280DD105201F4908702148BA
:100DE000007820490978491C1E4A1170C01C1B4913
:100DF0000C542FE01848007805280DD1062016491C
:100E000008701848007817490978491C154A11706C
:100E1000C01C12490C541DE00F480078062816D15A
:100E2000552C14D100200C4908700E4800780D494B
:100E30000978491C0B4A1170C01C08490C54104613
:100E40000078C01CC1B20548FFF740FE02E0002058
:100E50000149087010BD00002E000020520C002037
:100E60002C0000202D000020704710B500F002F883
:100E700010BD00000CB50020019000903F480068B4
:100E800040F480303D49086000BF3C48006800F4F1
:100E9000003000900198401C0190009818B901980A
:100EA000B0F5A06FF1D13548006800F4003010B102
:100EB0000120009001E000200090009801285CD102
:100EC0002F48006840F010002D490860084600686F
:100ED00020F0030008600846006840F00200086047
:100EE00026484068254948600846406848600846EA
:100EF000406840F4806048600846C06A2149084064
:100F00001E49C8620846C06A1F4908431B49C86297
:100F10000846006840F08060086000BF174800681D
:100F200000F000600028F9D01448406820F47C10DC
:100F3000124948600846406840F4E8104860084696
:100F4000006840F08070086000BF0C48006800F046
:100F500000700028F9D00948406820F003000749D4
:100F600048600846406840F00200486000BF0348FF
:100F7000406800F00C000828F9D10CBD00100240B8
:100F80000020024000F0FEFF70060100042808D196
:100F90004FF0E021096941F004014FF0E0221161B6
:100FA00007E04FF0E021096921F004014FF0E02251
:100FB000116170477047000010B51648006840F096
:100FC0000100144908600846406813490840114967
:100FD000486008460068114908400E490860084604
:100FE000006820F4802008600846406820F4FE0075
:100FF00048600846006820F0A05008604FF47F0069
:1010000088600020C862FFF730FF4FF0006004499D
:10101000086010BD001002400000FFF0FFFFF6FE68
:1010200008ED00E010B540F22551064800F000F947
:1010300038B1044800F0B8F9C4B22146024800F0C3
:10104000DEF910BD003801404800002010B586B020
:101050000446012144F20400FFF774FD4FF40070D0
:10106000ADF8140003208DF8160018208DF8170035
:1010700005A91C48FFF7CDFA4FF48060ADF81400C5
:1010800004208DF8170005A91648FFF7C2FA25209D
:101090008DF8000003208DF801008DF8020001207A
:1010A0008DF803006846FFF7CFFC01940020ADF8EF
:1010B0000800ADF80A00ADF80C00ADF810000C20E7
:1010C000ADF80E0001A9084800F002F9012240F233
:1010D0002551054800F0D6F80121034800F08FF8AB
:1010E00006B010BD000801400038014070B505464B
:1010F0000E4640210A4800F079F800240CE0295DF2
:10110000074800F056F900BF4021054800F083F879
:101110000028F9D0601CC4B2B442F0DB70BD0000FE
:10112000003801402DE9F04105460E460427FFF73F
:1011300051FA3420FFF7C8F92C460CE02046FFF79F
:10114000C9F90746042F04D0FFF704FA3846BDE872
:10115000F08104F50064B442F0D9FFF7FBF938469A
:10116000F5E7000038B5044620680A490840B0F1A8
:10117000005F0ED160680090074900980860012068
:1011800080F3108800BF2068FFF739F80248006834
:10119000804738BD0000FE2F140000202DE9F041EB
:1011A00004460D4617464FF004080F48844202D209
:1011B0000220BDE8F0813420FFF786F900260DE01B
:1011C00020462968FFF7D0F98046B8F1040F02D114
:1011D000241D2D1D01E04046EBE7761CB6EB970F72
:1011E000EED34046E5E700000028000801F4007255
:1011F000B2F5007F00D100BFCA430280704721B121
:10120000828942F40052828104E082894DF6FF73A4
:101210001A408281704702460020B1F5007F00D15C
:1012200000BF13880B400BB1012000E00020704785
:1012300070B50246002400230025002040F66A16FF
:10124000B14200D100BFC1F3421501F01F030126D6
:1012500006FA03F3012D02D19689334006E0022DF0
:1012600002D1168A334001E0968A33400C120126DF
:1012700006FA04F41688344013B10CB1012000E0E2
:10128000002070BDF0B50346002400260025002094
:1012900040F66A17B94200D100BF1846C1F34214A4
:1012A00001F01F06012707FA06F5012C01D10C30C9
:1012B00004E0022C01D1103000E014301AB10768AC
:1012C0002F43076002E00768AF430760F0BD0000EE
:1012D0002DE9F04786B005460E460024A24600BF21
:1012E000A1460027B08900B100BF2F462C8A4CF6DA
:1012F000FF700440F08804432C82AC894EF6F31052
:101300000440B08831890843718908430443AC81A3
:10131000AC8A4FF6FF400440B0890443AC8201A878
:10132000FFF72AFC1F48874202D1DDF810A001E038
:10133000DDF80CA0A88900F4004040B10AEBCA0017
:1013400000EB0A1031684900B0FBF1F807E00AEB46
:10135000CA0000EB0A1031688900B0FBF1F8642084
:10136000B8FBF0F004012009642101FB1089A88971
:1013700000F4004040B1322000EBC900B0FBF1F0B6
:1013800000F00700044308E0322000EB091064215C
:10139000B0FBF1F000F00F0004432C8106B0BDE873
:1013A000F08700000038014001468888C0F308003B
:1013B0007047C1F308028280704700BFFEE700213A
:1013C000818001804180704702461088538898428E
:1013D00003D1908808B9002070471388901DC05C25
:1013E00008701388581CC31700EB93539B12A0EB93
:1013F000832313809088401E90800220ECE710B574
:1014000002465088C31700EB93539B12A0EB832333
:101410001488A34205D19388B3F5806F01D10120D0
:1014200010BD5388901DC1545388581CC31700EB3E
:1014300093539B12A0EB832353809088401C908091
:101440000220EDE780F31088704700BF704700006E
:1014500030B50246002000230BE012F8015B85EA5C
:101460002024E4B2044D35F8144084EA0024A0B2EC
:101470005B1C8B42F1D330BD101500081E4800687C
:101480001E49884202D11E48FFF76CFE002080F3FF
:10149000108800BF4FF4A060FFF70EFBFEF7F2FFCD
:1014A000FFF7B2FA4FF4E130FFF7D0FD40F27121BF
:1014B0000420FFF75DFA1348FFF781FF7D20FFF757
:1014C00021FC40B10120104908601049C1F8B00169
:1014D000FFF748FB05E000200B4908600B49C1F805
:1014E000B001012008490860FFF76EFA03E0FFF73A
:1014F00051FAFFF723FAFAE7002800081234567869
:101500000030000848000020B481214200802142C0
:1015100000002110422063308440A550C660E7706F
:10152000088129914AA16BB18CC1ADD1CEE1EFF117
:101530003112100273325222B5529442F772D662BF
:10154000399318837BB35AA3BDD39CC3FFF3DEE367
:101550006224433420040114E664C774A44485540F
:101560006AA54BB528850995EEE5CFF5ACC58DD5B7
:101570005336722611163006D776F6669556B4465F
:101580005BB77AA719973887DFF7FEE79DD7BCC707
:10159000C448E5588668A7784008611802282338AF
:1015A000CCC9EDD98EE9AFF9488969990AA92BB957
:1015B000F55AD44AB77A966A711A500A333A122AFF
:1015C000FDDBDCCBBFFB9EEB799B588B3BBB1AABA7
:1015D000A66C877CE44CC55C222C033C600C411C4F
:1015E000AEED8FFDECCDCDDD2AAD0BBD688D499DF7
:1015F000977EB66ED55EF44E133E322E511E700E9F
:101600009FFFBEEFDDDFFCCF1BBF3AAF599F788F46
:101610008891A981CAB1EBA10CD12DC14EF16FE126
:101620008010A100C230E32004502540467067605E
:10163000B9839893FBA3DAB33DC31CD37FE35EF376
:10164000B1029012F322D2323542145277625672AE
:10165000EAB5CBA5A89589856EF54FE52CD50DC5C6
:10166000E234C324A01481046674476424540544FE
:10167000DBA7FAB79987B8975FE77EF71DC73CD716
:10168000D326F2369106B01657667676154634564E
:101690004CD96DC90EF92FE9C899E9898AB9ABA966
:1016A0004458654806782768C018E1088238A3289E
:1016B0007DCB5CDB3FEB1EFBF98BD89BBBAB9ABBB6
:1016C000754A545A376A167AF10AD01AB32A923AEE
:1016D0002EFD0FED6CDD4DCDAABD8BADE89DC98D06
:1016E000267C076C645C454CA23C832CE01CC10C3E
:1016F0001FEF3EFF5DCF7CDF9BAFBABFD98FF89F56
:10170000176E367E554E745E932EB23ED10EF01E8D
:1017100000002110422063308440A550C660E7706D
:10172000088129914AA16BB18CC1ADD1CEE1EFF115
:101730003112100273325222B5529442F772D662BD
:10174000399318837BB35AA3BDD39CC3FFF3DEE365
:101750006224433420040114E664C774A44485540D
:101760006AA54BB528850995EEE5CFF5ACC58DD5B5
:101770005336722611163006D776F6669556B4465D
:101780005BB77AA719973887DFF7FEE79DD7BCC705
:10179000C448E5588668A7784008611802282338AD
:1017A000CCC9EDD98EE9AFF9488969990AA92BB955
:1017B000F55AD44AB77A966A711A500A333A122AFD
:1017C000FDDBDCCBBFFB9EEB799B588B3BBB1AABA5
:1017D000A66C877CE44CC55C222C033C600C411C4D
:1017E000AEED8FFDECCDCDDD2AAD0BBD688D499DF5
:1017F000977EB66ED55EF44E133E322E511E700E9D
:101800009FFFBEEFDDDFFCCF1BBF3AAF599F788F44
:101810008891A981CAB1EBA10CD12DC14EF16FE124
:101820008010A100C230E32004502540467067605C
:10183000B9839893FBA3DAB33DC31CD37FE35EF374
:10184000B1029012F322D2323542145277625672AC
:10185000EAB5CBA5A89589856EF54FE52CD50DC5C4
:10186000E234C324A01481046674476424540544FC
:10187000DBA7FAB79987B8975FE77EF71DC73CD714
:10188000D326F2369106B01657667676154634564C
:101890004CD96DC90EF92FE9C899E9898AB9ABA964
:1018A0004458654806782768C018E1088238A3289C
:1018B0007DCB5CDB3FEB1EFBF98BD89BBBAB9ABBB4
:1018C000754A545A376A167AF10AD01AB32A923AEC
:1018D0002EFD0FED6CDD4DCDAABD8BADE89DC98D04
:1018E000267C076C645C454CA23C832CE01CC10C3C
:1018F0001FEF3EFF5DCF7CDF9BAFBABFD98FF89F54
:10190000176E367E554E745E932EB23ED10EF01E8B
:101910000100000035070008020000002D07000844
:101920000300000059090008040000003107000806
:10193000050000002F070008FF0000000000000065
:101940006019000800000020480000008C01000819
:10195000A81900084800002070130000A801000822
:1019600000A24A040000000000000000010203047D
:101970000607080900000000010203040508090029
:10198000000000000000000000300008000000001F
:101990000000000000000000010203040102030433
:0819A00006070809020406080D
:04000005080001519D
:00000001FF
