:020000040800F2
:10000000381200209D01000841160008A5150008BF
:1000100000000000000000000000000000000000E0
:100020000000000000000000000000003D17000874
:100030000000000000000000B51600083D18000890
:10004000AF010008AF010008AF010008AF010008D0
:10005000AF010008AF010008AF010008AF010008C0
:10006000AF010008AF010008AF010008AF010008B0
:10007000AF010008AF010008AF010008AF010008A0
:10008000AF010008AF01000800000000AF01000848
:10009000AF010008AF010008AF010008AF01000880
:1000A000AF010008AF010008AF010008AF01000870
:1000B000AF01000800000000A512000800000000C9
:1000C00000F002F800F03EF80CA030C80838241800
:1000D0002D18A246671EAB4654465D46AC4201D180
:1000E00000F030F87E460F3E0FCCB6460126334274
:1000F00000D0FB1AA246AB4633431847AC1D0000A4
:10010000CC1D0000103A02D378C878C1FAD8520743
:1001100001D330C830C101D504680C6070470000BD
:100120000023002400250026103A01D378C1FBD813
:10013000520700D330C100D50B6070471FB51FBDFB
:1001400010B510BD00F057F91146FFF7F7FF01F0A9
:100150006FFC00F06FF903B4FFF7F2FF03BC00F08F
:1001600075F9000070B505460C46164602E00FCC46
:100170000FC5103E102EFAD2082E02D303CC03C5B1
:10018000083E042E07D301CC01C5361F03E02178B9
:100190002970641C6D1C761EF9D270BD074880471B
:1001A00007480047FEE7FEE7FEE7FEE7FEE7FEE75B
:1001B00004480549054A064B7047000041180008ED
:1001C000C1000008380C002038120020380E002032
:1001D000380E0020F8B5042A2CD3830712D00B78F0
:1001E000491C0370401C521E83070BD00B78491C1E
:1001F0000370401C521E830704D00B78491C037007
:10020000401C521E8B079B0F05D0C91ADF0020230C
:10021000DE1B08C90AE0FFF7A5FFF8BD1D4608C9A7
:10022000FD401C46B4402C4310C0121F042AF5D2D6
:10023000F308C91A521EF0D40B78491C0370401CF5
:10024000521EEAD40B78491C0370401C012AE4D4E6
:1002500009780170F8BD01E004C0091F0429FBD230
:100260008B0701D50280801CC90700D0027070473F
:1002700000290BD0C30702D00270401C491E02297E
:1002800004D3830702D50280801C891EE3E7002285
:10029000EEE70022DFE7002203098B422CD3030A9A
:1002A0008B4211D300239C464EE003460B433CD4C3
:1002B000002243088B4231D303098B421CD3030A2B
:1002C0008B4201D394463FE0C3098B4201D3CB015B
:1002D000C01A524183098B4201D38B01C01A52418B
:1002E00043098B4201D34B01C01A524103098B428F
:1002F00001D30B01C01A5241C3088B4201D3CB007A
:10030000C01A524183088B4201D38B00C01A52415C
:1003100043088B4201D34B00C01A5241411A00D20C
:1003200001465241104670475DE0CA0F00D0494275
:10033000031000D34042534000229C4603098B42E5
:100340002DD3030A8B4212D3FC22890112BA030A6D
:100350008B420CD3890192118B4208D389019211EF
:100360008B4204D389013AD0921100E08909C30974
:100370008B4201D3CB01C01A524183098B4201D376
:100380008B01C01A524143098B4201D34B01C01A61
:10039000524103098B4201D30B01C01A5241C308D9
:1003A0008B4201D3CB00C01A524183088B4201D348
:1003B0008B00C01A5241D9D243088B4201D34B0063
:1003C000C01A5241411A00D20146634652415B10A5
:1003D000104601D34042002B00D549427047634686
:1003E0005B1000D3404201B50020C046C04602BDAC
:1003F000704770477047754600F024F8AE46050018
:1004000069465346C008C000854618B020B5FFF7BE
:10041000CFFE60BC00274908B6460026C0C5C0C54F
:10042000C0C5C0C5C0C5C0C5C0C5C0C5403D4900E8
:100430008D46704710B50446C046C0462046FFF7BB
:100440008AFE10BD00487047D80B002001491820D3
:10045000ABBEFEE7260002007047F8B505460E4623
:10046000042701F00BF8342000F07EFF2C460CE04E
:10047000204600F07FFF0746042F03D000F0BEFFA8
:100480003846F8BD0120C0022418B442F0D900F06B
:10049000B5FF3846F5E70000F0B58BB0044620798B
:1004A0000607360FA0880005050E00F077F9A84270
:1004B00003D0002D01D00BB0F0BD002108A8817041
:1004C00000200790042108A8017000214170AB486A
:1004D000C078B0421CD1E07A0006217B09040843B1
:1004E000617B09020843A17B08430490049800F053
:1004F00019FA002D0CD000F051F900019F498979BB
:1005000008430790002008A9887006A800F0AEFEF6
:100510009A480078B04256D1E07A0006217B09045F
:100520000843617B09020843A17B08430290944978
:100530000298401893490860E07B0006217C09047A
:100540000843617C09020843A17C08438E49086086
:1005500000208E490860012001F0B0F900F08EFF04
:10056000884801680068FFF778FF059000F046FFB3
:10057000002001F0A3F9002D18D00598042807D118
:1005800000F00CF900017D4989790843079006E0E5
:1005900000F004F900017949C97908430790002067
:1005A00008A9887006A800F061FE0CE000F0F6F8DB
:1005B00000017249C97908430790002008A9887092
:1005C00006A800F053FE6D484078B04274D16F48E1
:1005D00000686D490968884216D26C4800686C4909
:1005E000884211D200270CE020460B30C15D6748DD
:1005F00002680068401C654B186066488154781C8E
:10060000C7B2A07AB842EFDC604800685E4909686A
:10061000884204D25D4800685D49884270D35A48D8
:100620000068811E5B4801F095F903905648006808
:10063000801E5849085C000253490968491E554A02
:10064000515C0143039881424DD1012001F036F9FC
:1006500000F014FF4C480068821E4E49494800686B
:1006600000F0BEF8059000F0C9FE002001F026F968
:10067000002D45D00598042827D143480068811EE5
:100680004048006801F066F903903F480068801E0A
:100690004049085C00023C490968491E3D4A515CDA
:1006A00008430399884208D000F078F800013349E4
:1006B000C979084307900FE022E000F06FF80001CD
:1006C0002E4989790843079006E000F067F8000199
:1006D0002A49C97908430790002008A9887006A80C
:1006E00000F0C4FD0CE000F059F800012349C9797D
:1006F00008430790002008A9887006A800F0B6FDFE
:100700001E488078B0421CD1002D1AD000F046F867
:1007100000011A49897908430790002108A8C1708F
:10072000012106A80173002141738173AA21C173BD
:10073000017441748174082108A8817006A800F032
:1007400095FD0E480079B04216D1E07A0006217B73
:1007500009040843617B09020843A17B0843019017
:100760000D490198884207D105480068401C0028BF
:1007700002D0034800F016F800BF9CE6C400002039
:1007800000300008CC000020D0000020D400002061
:1007900002080000D4030020AAAAAAAA10B500F0FB
:1007A000CBFF10BD38B5044620680B490840012135
:1007B000490788420FD16068009008490098086096
:1007C000012080F3108800BF206880F3088800BFF4
:1007D00008460068804738BD0000FE2FAC000020AE
:1007E000F8B504460D461746042000900E48844292
:1007F00001D20320F8BD342000F0B6FD00260DE044
:100800002046296800F004FE00900098042802D1D8
:10081000241D2D1D01E00098ECE7761CB808B042BD
:10082000EED80098E6E700000028000810B5012384
:100830005B02CA1A994242D010DC202930D006DC73
:10084000012924D0042925D0082948D125E04029B0
:1008500029D0CA1FF93A002A41D12DE03F24640271
:10086000131BA24236D009DCFF3AFF3A023A002AB3
:1008700028D001239B02D21A31D126E00122D203D3
:100880009A1A13D001231B04D21A28D111E0154A59
:10089000826025E00822C26022E01022C2601FE0D0
:1008A000082202611CE01022026119E00822426065
:1008B00016E01022426013E00422426010E004229D
:1008C00042600DE0042242600AE0002282610422BC
:1008D000426005E0002282610422426000E000BF25
:1008E00000BF10BD010101007FB505460C466846FA
:1008F00085720021C1720121017361120180E00142
:10090000001D81B2684641800021C94381807B215E
:10091000C943C180002101810121417300F05EF8CB
:100920007FBD00003EB5044600F010FB00F0D4F897
:10093000224800F047F8684600F095FB0021684621
:100940008171C17101720121417200218172C172F4
:100950008170204600F0FCF8062148431849095CE4
:100960006846C170204600F0F3F806214843144958
:100970004018417868460171204600F0E9F80621E8
:1009800048430F494018817868464171204600F07D
:10099000DFF8062148430A494018818868460180EB
:1009A0006946064800F044FA00210846FFF79CFF1C
:1009B00001220221014800F031FA3EBD00640040EE
:1009C0001600002010B504460121480600F094FEF0
:1009D00000210120400600F08FFE10BD10B500215F
:1009E000837A01229A401146394A126801231A4338
:1009F000374B1A601A46D2698A43DA61027B002AB1
:100A00001AD11A46D2688A43DA60C288120443882F
:100A10001A43304B0924A4011B19847AE4001A51AB
:100A20008288120403881A432A4B0924A4011B1943
:100A3000847AE4001B195A60027B012A1BD1244AE4
:100A4000D2680A43224BDA600288120443881A43B0
:100A5000204B0924A4011B19847AE4001A518288CE
:100A60001204C3881A431B4B0924A4011B19847A5E
:100A7000E4001B195A60C27A002A05D1144A526850
:100A80008A43134B5A6004E0114A52680A43104BE0
:100A90005A600289002A04D10D4A52698A430C4BDC
:100AA0005A610289012A04D1094A52690A43084B52
:100AB0005A61427B012A04D1054AD2690A43044B98
:100AC000DA61034A126852085200014B1A6010BDE5
:100AD00000660040006400401CB50121480400F09D
:100AE0001BFE0121480600F0F7FD04220B2109201E
:100AF000C00600F031FD04220C210920C00600F0E0
:100B00002BFD0320C00200900221684601710321E1
:100B10004171002181710121C17169460920C0061E
:100B200000F0D2FC01208002009001216846017192
:100B3000032141710021817169460920C00600F03E
:100B4000C3FC012189020920C00600F027FD1CBD5D
:100B50000146554A881A91426FD034DC534A881AAC
:100B600091426BD019DC524A881A914267D00BDC53
:100B70005048081800286FD04F4A801800286CD0C1
:100B8000801800286AD187E04B4A801800287FD05F
:100B90004A4A8018002861D178E0494BC21A98422D
:100BA0006CD007DC444A801800286BD080180028DD
:100BB00078D165E04348101800285DD0424A80187B
:100BC00000286FD156E0414BC21A98423ED01CDC3F
:100BD0003F4BC21A984242D00CDC374A801800289A
:100BE00043D09200801800283DD03A4A801800284F
:100BF00058D136E02E484042101800282AD0344AF6
:100C00005242801800284DD122E0334BD01A9A422C
:100C100016D008DC31481018002815D0304A80184A
:100C200000283FD10EE02D4A8018002803D08018FC
:100C3000002837D170470120FCE719E024E029E0C3
:100C40000220F7E70320F5E70420F3E70520F1E7AA
:100C50000620EFE70720EDE722E01FE022E0082072
:100C6000E8E70920E6E70A20E4E70B20E2E70FE0E7
:100C70000C20DFE70D20DDE70E20DBE70F20D9E7B2
:100C80001020D7E71120D5E71220D3E71320D1E7B2
:100C90001420CFE71520CDE71620CBE71720C9E7B2
:100CA0001820C7E70020C5E7F0490200803801009E
:100CB00050C30000E0B1FFFFF0D8FFFF68C5FFFFA1
:100CC000409C000078ECFFFFC8B5FFFF30570500DF
:100CD000A0860100589EFFFFE09304006079FEFFAC
:100CE00030FEFEFF70B504460D46002660692840C0
:100CF00000286FD0FF210131681A8D4264D010DCCA
:100D0000082D3DD006DC012D28D0022D2CD0042D3D
:100D10007BD12FE0102D39D0202D3DD0402D74D126
:100D200040E07F221202811A904268D00DDCFF3829
:100D3000013800284FD0FF38FF380238002850D043
:100D400001218902401A60D151E00120C003081A34
:100D50002ED001210904401A57D12FE0A0682E4956
:100D600000F0F7FA064652E0E068032100F0F1FADD
:100D700006464CE0E068082100F0EBFA064646E043
:100D8000E068102100F0E5FA064640E02069032102
:100D900000F0DFFA06463AE02069082100F0D9FAAF
:100DA000064634E02069102100F0D3FA06462EE012
:100DB0006068082100F0CDFA064628E0606810213E
:100DC00000F0C7FA064622E0A069012100F0C1FA4E
:100DD00006461CE01CE0A069022100F0BAFA0646B3
:100DE00015E0A069042100F0B4FA06460FE0A069FE
:100DF000702100F0AEFA064609E006E0FFE7606801
:100E0000042100F0A6FA064601E0002600BF00E03B
:100E10000026304670BD000001010100002A03D009
:100E200043690B43436102E043698B43436170476D
:100E300030B502460020002314680225AC4314603C
:100E4000146801252C43146000E05B1C5468E4071F
:100E5000E40F002C02D13C4CA342F6D15468E407C5
:100E6000E40F002C01D100206DE08C79012C04D11D
:100E7000146880252C43146003E014688025AC437B
:100E80001460CC79012C04D1146840252C431460E3
:100E900003E014684025AC4314600C7A012C04D1A3
:100EA000146820252C43146003E014682025AC430B
:100EB00014604C7A012C04D1146810252C43146062
:100EC00003E014681025AC4314608C7A012C04D123
:100ED000146808252C43146003E014680825AC430B
:100EE0001460CC7A012C04D1146804252C431460BE
:100EF00003E014680425AC4314608C78A407CD7813
:100F00002D062C430D792D042C434D792D052C43B2
:100F10000D886D1E2C43D46114686408640014604D
:100F2000002300E05B1C5468E407E40F002C02D0AF
:100F3000054CA342F6D15468E407E40F002C01D01D
:100F4000002000E0012030BDFFFFFF0008B51E219A
:100F50006846017001214170817000F073FB08BD8B
:100F600010B50C010346FF33B1331B590424234051
:100F70001372137A002B07D10C010346FF33B133F0
:100F80001B595B0D136006E00C010346FF33B133C0
:100F90001B59DB0853600C010346FF33B1331B5967
:100FA0000224234053720C010346FF33B133E3188C
:100FB0005B681B071B0F93720C010346FF33B133B1
:100FC000E3185B681B041B0ED3740C010346FF334C
:100FD000B133E3189B68D3720C010346FF33B1337E
:100FE000E3189B681B041C0E14730C010346FF33AB
:100FF000B133E3189B681B021C0E54730C010346AB
:10100000FF33B133E3189B681B0E93730C01034647
:10101000FF33B133E318DB68D3730C010346FF33AE
:10102000B133E318DB681B041C0E14740C01034677
:10103000FF33B133E318DB681B021C0E54740C0140
:101040000346FF33B133E318DB681B0E93740029AA
:1010500004D1C36820242343C36003E00369202430
:101060002343036110BD00218171C171017241727E
:101070008172C1728170C1700321017102214171BD
:1010800001210180704730B5024600209368012499
:10109000A4062340A34200D110E093680124E40693
:1010A0002340A34201D1012008E0936801242407D2
:1010B0002340A34201D1022000E0042004287BD079
:1010C00004011346FF3381331B59DC07E40F05018C
:1010D0001346FF3381335C510B7A002B0FD10B8801
:1010E0005B054C7A234305011446FF34813464596F
:1010F000234305011446FF348134635110E04B68EB
:10110000DB000C7A23434C7A234305011446FF3459
:1011100081346459234305011446FF3481346351FB
:101120008B7A1B071B0F8B7204011346FF3381332D
:10113000E3185B681C09240105011346FF33813362
:10114000EB185C6004011346FF338133E3185B68DE
:101150008C7A234305011446FF3481342C196360D3
:101160008B7B1B064C7B240423430C7B24022343F0
:10117000CC7A234305011446FF3481342C19A36033
:101180008B7C1B064C7C240423430C7C24022343CD
:10119000CC7B234305011446FF3481342C19E360D2
:1011A00004011346FF3381331B59012423430501F6
:1011B0001446FF348134635130BD000010B502463F
:1011C0000023002904D0012907D002290FD109E00A
:1011D0009068204C204003460BE090681E4C204055
:1011E000034606E090681D4C2040034601E00023C2
:1011F00000BF00BF1A4C181BA3421BD008DC002BF9
:1012000014D018481818002812D002281CD115E054
:10121000FF38FF380238002812D0134C001900287C
:101220000AD001246404001B0ED10BE002230DE060
:1012300000230BE0002309E0002307E0012305E081
:10124000012303E0012301E0002300BF00BFD8B267
:1012500010BD00000300000400030008000003109C
:1012600000010008FFFFFFFB0003FFF770B5044615
:10127000002521460948FFF706FF064605E06D1CDC
:101280000748854201D9012070BD31460348FFF768
:1012900095FF0128F3D10020F6E70000006400402C
:1012A0008096980010B502210948FFF71BFD002821
:1012B0000CD0084A00210648FFF752FE02210448DC
:1012C000FFF7B4FA0349044800F033F810BD0000FA
:1012D00000640040DC000020B000002070B504462F
:1012E0000D460026002C00D170BD21686068884240
:1012F00002D1207A01281AD1142360685843226948
:101300001118284600F0EBFA14236168594322694A
:10131000501800F0D6FA6068401C6060E1686068B0
:10132000884201D3002060600020207201263046F0
:10133000DAE770B505460E46284600F0E5FA0446A1
:10134000002C00D170BD3146204600F0C8FA0120C3
:10135000F8E70246002013460B40002B01D0012085
:1013600000E00020704700000149C860704700009D
:101370000020024030B5044604250B20000400F094
:101380008FF80546042D17D10C4800690221084347
:101390000A49086108464461006940210843074939
:1013A00008610B20000400F07BF805460348006943
:1013B0000221884301490861284630BD00200240CF
:1013C00004200D49C968C907C90F002901D00120AF
:1013D00010E00949C96810221140002901D00220FB
:1013E00008E00549C96804221140002901D0032002
:1013F00000E004207047000000200240034800691C
:101400008021084301490861704700000020024024
:1014100078B506460C460425002000900B200004F9
:1014200000F03EF80546042D24D11348006901213F
:1014300008431149086134800B20000400F030F8A3
:101440000546042D10D1B01C0090200C0099088096
:101450000B20000400F024F8054607480069400806
:1014600040000549086105E0034800694008400064
:1014700001490861284678BD0020024005480069FE
:1014800080210840002804D00348024948600348EE
:10149000486070470020024023016745AB89EFCDCB
:1014A00010B503460424FFF78BFF044603E0FFF763
:1014B00087FF04465B1E012C01D1002BF7D1002BC6
:1014C00000D10524204610BDF0B50A4600210023B6
:1014D000002400BF3DE001258D402B4615681D40CE
:1014E0002C469C4234D11579012D02D01579022D5C
:1014F00016D185684F000326BE40B54385605579F7
:101500004E00B540866835438560858801268E404B
:10151000B5438580858896798E40B6B235438580FF
:1015200005684F000326BE40B543056015794E009F
:10153000B540066835430560C5684F000326BE40C8
:10154000B543C560D5794E00B540C6683543C56022
:10155000491C1029BFD3F0BDF0B5002300244D076E
:10156000EE0E1546B5402B46CD10AE000546203593
:10157000AD594E07F70E0F26BE40B543CE10B6004C
:1015800007462037BD51CD10AE003D46AD591D4335
:101590002C46CD10AD003E467451F0BD018570471C
:1015A0008161704700BFFEE710B504210920C00625
:1015B000FFF7F6FF10BD10B508210920C006FFF7A0
:1015C000EFFF10BD10B508210920C006FFF7E6FFA8
:1015D00010BD10B540210920C006FFF7E1FF10BD86
:1015E00010B540210920C006FFF7D8FF10BD10B587
:1015F00080210920C006FFF7D3FF10BD10B5802160
:101600000920C006FFF7CAFF10BD1CB50121480420
:1016100000F052F8CC200090012168464171017120
:101620000021817169460920C006FFF74DFFFFF7D1
:10163000BBFFFFF7C0FFFFF7CCFFFFF7D8FF1CBDD4
:101640007047000000218278002A27D0184A03231F
:101650001B02D21803789B109B00D1580278920786
:10166000D30EFF229A400B469343194642789207C5
:10167000120E03789B07DB0E9A4011430C4A03239A
:101680001B02D21803789B109B00D1500278D3061E
:10169000DB0E01229A40064B1A6007E00278D3065F
:1016A000DB0E01229A40024B80331A607047000023
:1016B00000E100E070470000002905D0054A5269AA
:1016C0000243044B5A6104E0024A52698243014BCF
:1016D0005A61704700100240002905D0054AD269BE
:1016E0000243044BDA6104E0024AD2698243014BAF
:1016F000DA61704700100240002905D0054A1269DE
:101700000243044B1A6104E0024A12698243014B0E
:101710001A61704700100240002905D0054A9269FD
:101720000243044B9A6104E0024A92698243014BEE
:101730009A61704700100240012070477047000016
:101740000CB5002001900090314800680121090487
:1017500008432F49086000BF2D4800680121490453
:10176000084000900198401C01900098002804D186
:101770000521090301988842EED12548006801211E
:1017800049040840002802D00120009001E0002018
:1017900000900098012839D111201E4908601C488A
:1017A00040681B49486008464068486008464068F1
:1017B0007F21C903884316494860084640680921CB
:1017C00009040843124948600846006801210906D7
:1017D00008430F49086000BF0D4800680121490611
:1017E00008400028F8D00A4840688008800008496E
:1017F000486008464068022108430549486000BF28
:10180000034840680C2108400828F9D10CBD0000AD
:101810000010024000200240042806D10649096950
:1018200004221143044A116105E0034909690422B5
:101830009143014A1161704700E000E070470000E9
:1018400010B51B4800680121084319490860084683
:10185000406818490840164948600846006816491B
:10186000084013490860084600680121890488433C
:101870000F490860084640683F21090488430C4925
:1018800048600846C06A00090001C8620846006B4B
:10189000FF2154318843064908630846406B4008DD
:1018A0004000486300208860FFF74AFF10BD000039
:1018B000001002400CB8FFF8FFFFF6FE80F310881E
:1018C000704770B50446254600202860A87228722B
:1018D0006872082128460B30FEF7D9FC70BDF8B5B8
:1018E00004460D4626462F4638683060B87AB072F6
:1018F000387A3072787A7072082239460B31304665
:101900000B30FEF767FCF8BD70B50446002C00D123
:1019100070BD207A012801D10020F9E72068411C20
:1019200021601421484321694518E16820688842F4
:1019300001D30020206061682068884201D1012025
:101940002072142202492846FEF70CFC2846DFE7E5
:10195000941E000830B50246002000230BE01478E6
:10196000521C05126C402406E40D044D2C5B05024C
:101970006C40A0B25B1C8B42F1D330BD941A0008BE
:1019800010B50420C043FFF747FF08490848006826
:10199000FEF781FC40B207490870002008567D21FF
:1019A000C900484300B20449088010BD00127A0003
:1019B00000000020D8000020DA0000200146124A72
:1019C0000023D35E0A465A43104B5A6100229A61A3
:1019D0001A46126901231A430C4B1A6100BF0B4AC5
:1019E0001069C207D20F002A04D00122120402405B
:1019F000002AF4D0054A126952085200034B1A61BA
:101A000000229A6170470000DA00002000E000E048
:101A100000B585B069460548FFF760FC012802D192
:101A20006846FEF739FD05B000BD0000B00000209B
:101A3000FFF7EBFDFFF7A4FF124800681249884248
:101A400008D1FFF7BFFD7D200001FFF7B7FF0F486A
:101A5000FEF7A8FE002080F3108800BF0C48FEF7B8
:101A600061FFFFF7BDFDFFF7C9FD7D200001FFF716
:101A7000A5FFFFF7B5FDFFF7BAFD01E0FFF7C8FFCF
:101A8000FCE70000002800081234567800300008F7
:101A900048E8010000002110422063308440A55036
:101AA000C660E770088129914AA16BB18CC1ADD1A4
:101AB000CEE1EFF13112100273325222B55294424C
:101AC000F772D662399318837BB35AA3BDD39CC3F4
:101AD000FFF3DEE36224433420040114E664C77498
:101AE000A44485546AA54BB528850995EEE5CFF544
:101AF000ACC58DD55336722611163006D776F666EC
:101B00009556B4465BB77AA719973887DFF7FEE793
:101B10009DD7BCC7C448E5588668A77840086118B7
:101B200002282338CCC9EDD98EE9AFF948896999E3
:101B30000AA92BB9F55AD44AB77A966A711A500A8B
:101B4000333A122AFDDBDCCBBFFB9EEB799B588B33
:101B50003BBB1AABA66C877CE44CC55C222C033CD7
:101B6000600C411CAEED8FFDECCDCDDD2AAD0BBD83
:101B7000688D499D977EB66ED55EF44E133E322E2B
:101B8000511E700E9FFFBEEFDDDFFCCF1BBF3AAFD3
:101B9000599F788F8891A981CAB1EBA10CD12DC131
:101BA0004EF16FE18010A100C230E32004502540C7
:101BB00046706760B9839893FBA3DAB33DC31CD327
:101BC0007FE35EF3B1029012F322D2323542145217
:101BD00077625672EAB5CBA5A89589856EF54FE573
:101BE0002CD50DC5E234C324A01481046674476467
:101BF00024540544DBA7FAB79987B8975FE77EF7C7
:101C00001DC73CD7D326F2369106B01657667676B6
:101C1000154634564CD96DC90EF92FE9C899E98992
:101C20008AB9ABA94458654806782768C018E10806
:101C30008238A3287DCB5CDB3FEB1EFBF98BD89B66
:101C4000BBAB9ABB754A545A376A167AF10AD01A56
:101C5000B32A923A2EFD0FED6CDD4DCDAABD8BADB2
:101C6000E89DC98D267C076C645C454CA23C832CA6
:101C7000E01CC10C1FEF3EFF5DCF7CDF9BAFBABF06
:101C8000D98FF89F176E367E554E745E932EB23EF6
:101C9000D10EF01E00002110422063308440A55078
:101CA000C660E770088129914AA16BB18CC1ADD1A2
:101CB000CEE1EFF13112100273325222B55294424A
:101CC000F772D662399318837BB35AA3BDD39CC3F2
:101CD000FFF3DEE36224433420040114E664C77496
:101CE000A44485546AA54BB528850995EEE5CFF542
:101CF000ACC58DD55336722611163006D776F666EA
:101D00009556B4465BB77AA719973887DFF7FEE791
:101D10009DD7BCC7C448E5588668A77840086118B5
:101D200002282338CCC9EDD98EE9AFF948896999E1
:101D30000AA92BB9F55AD44AB77A966A711A500A89
:101D4000333A122AFDDBDCCBBFFB9EEB799B588B31
:101D50003BBB1AABA66C877CE44CC55C222C033CD5
:101D6000600C411CAEED8FFDECCDCDDD2AAD0BBD81
:101D7000688D499D977EB66ED55EF44E133E322E29
:101D8000511E700E9FFFBEEFDDDFFCCF1BBF3AAFD1
:101D9000599F788F8891A981CAB1EBA10CD12DC12F
:101DA0004EF16FE18010A100C230E32004502540C5
:101DB00046706760B9839893FBA3DAB33DC31CD325
:101DC0007FE35EF3B1029012F322D2323542145215
:101DD00077625672EAB5CBA5A89589856EF54FE571
:101DE0002CD50DC5E234C324A01481046674476465
:101DF00024540544DBA7FAB79987B8975FE77EF7C5
:101E00001DC73CD7D326F2369106B01657667676B4
:101E1000154634564CD96DC90EF92FE9C899E98990
:101E20008AB9ABA94458654806782768C018E10804
:101E30008238A3287DCB5CDB3FEB1EFBF98BD89B64
:101E4000BBAB9ABB754A545A376A167AF10AD01A54
:101E5000B32A923A2EFD0FED6CDD4DCDAABD8BADB0
:101E6000E89DC98D267C076C645C454CA23C832CA4
:101E7000E01CC10C1FEF3EFF5DCF7CDF9BAFBABF04
:101E8000D98FF89F176E367E554E745E932EB23EF4
:101E9000D10EF01E00000000000000000000000055
:101EA0000000000000000000C81E00080000002024
:101EB000DC00000004010008A41F0008DC00002072
:101EC0005C11000020010008006CDC020000000032
:101ED00000000000010203040607080900000004D6
:101EE00001000600000703000400000502000600D0
:101EF000000400000900000400000A0000040100C2
:101F00000C00000400000F00000502001000000497
:101F100001001800000502001500000401001E0069
:101F2000000502001E000004010028000004020059
:101F3000250000040100300000040100320000040C
:101F400001003C00000703002900000401004B00D1
:101F500000040100500000040100640000050200BC
:101F60006000000603006400000904006400000E25
:101F700007006400000000000000000000000000F6
:101F80000000000025000000F00000200102030412
:101F900005060809003000080000000000000000ED
:041FA000000000003D
:04000005080000C12E
:00000001FF
