:020000040800F2
:1000000048070020650100086B0E0008C10D0008BC
:1000100000000000000000000000000000000000E0
:10002000000000000000000000000000610F000858
:100030000000000000000000DD0E00086110000854
:1000400077010008770100087701000877010008B0
:1000500077010008770100087701000877010008A0
:100060007701000877010008770100087701000890
:100070007701000877010008770100087701000880
:1000800077010008770100080000000077010008F0
:100090007701000877010008770100087701000860
:1000A0007701000877010008770100087701000850
:1000B00077010008000000009D0C0008000000000F
:1000C00000F002F800F03EF80CA030C80838241800
:1000D0002D18A246671EAB4654465D46AC4201D180
:1000E00000F030F87E460F3E0FCCB6460126334274
:1000F00000D0FB1AA246AB46334318471811000044
:1001000038110000103A02D378C878C1FAD85207E3
:1001100001D330C830C101D504680C6070470000BD
:100120000023002400250026103A01D378C1FBD813
:10013000520700D330C100D50B6070471FB51FBDFB
:1001400010B510BD00F02AF91146FFF7F7FF01F0D6
:1001500013F800F042F903B4FFF7F2FF03BC00F01C
:1001600049F900000748804707480047FEE7FEE7D7
:10017000FEE7FEE7FEE7FEE704480549054A064BB1
:100180007047000065100008C10000084801002009
:100190004807002048030020480300200346F0B52C
:1001A0000B439B072DD1244DEF01042A29D308C806
:1001B00010C95E1B9E43121F3E4017D0D8B2E1B259
:1001C000401A3106014310D198B2A1B2401A31044D
:1001D00001430AD118022102000A090A401A310219
:1001E000014302D1180E210E401AF0BDA342DCD00B
:1001F00018BA21BA884201D90120F0BD0020C043BD
:10020000F0BD002A01D10020F0BD03780C78401C1D
:10021000491C002B0DD0A3420BD1521E09D00378EC
:100220000C78401C491C002B03D0A34201D1521E64
:10023000EBD1181BF0BD00000101010100220309F0
:100240008B422CD3030A8B4211D300239C464EE0F1
:1002500003460B433CD4002243088B4231D30309AD
:100260008B421CD3030A8B4201D394463FE0C3095F
:100270008B4201D3CB01C01A524183098B4201D377
:100280008B01C01A524143098B4201D34B01C01A62
:10029000524103098B4201D30B01C01A5241C308DA
:1002A0008B4201D3CB00C01A524183088B4201D349
:1002B0008B00C01A524143088B4201D34B00C01A35
:1002C0005241411A00D201465241104670475DE04A
:1002D000CA0F00D04942031000D3404253400022CD
:1002E0009C4603098B422DD3030A8B4212D3FC2276
:1002F000890112BA030A8B420CD3890192118B42F5
:1003000008D3890192118B4204D389013AD092110A
:1003100000E08909C3098B4201D3CB01C01A5241C5
:1003200083098B4201D38B01C01A524143098B428E
:1003300001D34B01C01A524103098B4201D30B0177
:10034000C01A5241C3088B4201D3CB00C01A52419C
:1003500083088B4201D38B00C01A5241D9D2430883
:100360008B4201D34B00C01A5241411A00D20146C0
:10037000634652415B10104601D34042002B00D52A
:100380004942704763465B1000D3404201B50020EC
:10039000C046C04602BD704770477047754600F0C2
:1003A00025F8AE46050069465346C008C00085469C
:1003B00018B020B5FFF7E0FE60BC00274908B6463C
:1003C0000026C0C5C0C5C0C5C0C5C0C5C0C5C0C564
:1003D000C0C5403D49008D46704710B50446C04633
:1003E000C0462046FFF7B7FE10BD0000004870472A
:1003F000E400002001491820ABBEFEE72600020001
:100400007047000038B5044620680B4908400121B8
:10041000490788420ED1606800900849009808603A
:10042000012000F05DFE206880F3088800BF0348CB
:100430000068804738BD00000000FE2FBC0000208F
:1004400010B501235B02CA1A994242D010DC202960
:1004500030D006DC012924D0042925D0082948D130
:1004600025E0402929D0CA1FF93A002A41D12DE0C0
:100470003F246402131BA24236D009DCFF3AFF3A44
:10048000023A002A28D001239B02D21A31D126E059
:100490000122D2039A1A13D001231B04D21A28D1A5
:1004A00011E0154A826025E00822C26022E0102295
:1004B000C2601FE0082202611CE01022026119E004
:1004C0000822426016E01022426013E004224260DB
:1004D00010E0042242600DE0042242600AE00022A3
:1004E00082610422426005E00022826104224260AF
:1004F00000E000BF00BF10BD010101007FB505464F
:100500000C46684685720021C17201210173611297
:100510000180E001001D81B2684641800021C9438D
:1005200081807B21C943C180002101810121417368
:1005300000F05EF87FBD00003EB5044600F010FB01
:1005400000F0D4F8224800F047F8684600F095FB28
:10055000002168468171C17101720121417200213F
:100560008172C1728170204600F0FCF80621484378
:100570001849095C6846C170204600F0F3F806216E
:10058000484314494018417868460171204600F0FC
:10059000E9F8062148430F494018817868464171BF
:1005A000204600F0DFF8062148430A4940188188B8
:1005B000684601806946064800F044FA0021084672
:1005C000FFF79CFF01220221014800F031FA3EBDF5
:1005D000006400401E00002010B5044601214806BA
:1005E00000F09EFC00210120400600F099FC10BDA7
:1005F00010B50021837A01229A401146394A1268C7
:1006000001231A43374B1A601A46D2698A43DA61CA
:10061000027B002A1AD11A46D2688A43DA60C2885D
:10062000120443881A43304B0924A4011B19847A0D
:10063000E4001A518288120403881A432A4B0924C1
:10064000A4011B19847AE4001B195A60027B012A59
:100650001BD1244AD2680A43224BDA600288120472
:1006600043881A43204B0924A4011B19847AE4000F
:100670001A5182881204C3881A431B4B0924A4010F
:100680001B19847AE4001B195A60C27A002A05D12A
:10069000144A52688A43134B5A6004E0114A526864
:1006A0000A43104B5A600289002A04D10D4A52694C
:1006B0008A430C4B5A610289012A04D1094A5269C2
:1006C0000A43084B5A61427B012A04D1054AD26988
:1006D0000A43044BDA61034A126852085200014B84
:1006E0001A6010BD00660040006400401CB5012186
:1006F000480400F025FC0121480600F001FC04221A
:100700000B210920C00600F035FB04220C21092032
:10071000C00600F02FFB0320C002009002216846B3
:10072000017103214171002181710121C17169466B
:100730000920C00600F0D6FA0120800200900121B5
:1007400068460171032141710021817169460920C8
:10075000C00600F0C7FA012189020920C00600F096
:100760002BFB1CBD0146554A881A91426FD034DCE0
:10077000534A881A91426BD019DC524A881A914226
:1007800067D00BDC5048081800286FD04F4A8018FB
:1007900000286CD0801800286AD187E04B4A801866
:1007A00000287FD04A4A8018002861D178E0494B60
:1007B000C21A98426CD007DC444A801800286BD0DB
:1007C0008018002878D165E04348101800285DD0D3
:1007D000424A801800286FD156E0414BC21A984215
:1007E0003ED01CDC3F4BC21A984242D00CDC374A48
:1007F0008018002843D09200801800283DD03A4A43
:100800008018002858D136E02E48404210180028A1
:100810002AD0344A5242801800284DD122E0334B6E
:10082000D01A9A4216D008DC31481018002815D08A
:10083000304A801800283FD10EE02D4A8018002849
:1008400003D08018002837D170470120FCE719E059
:1008500024E029E00220F7E70320F5E70420F3E78E
:100860000520F1E70620EFE70720EDE722E01FE093
:1008700022E00820E8E70920E6E70A20E4E70B2069
:10088000E2E70FE00C20DFE70D20DDE70E20DBE7DD
:100890000F20D9E71020D7E71120D5E71220D3E7A2
:1008A0001320D1E71420CFE71520CDE71620CBE7A2
:1008B0001720C9E71820C7E70020C5E7F049020064
:1008C0008038010050C30000E0B1FFFFF0D8FFFF07
:1008D00068C5FFFF409C000078ECFFFFC8B5FFFF34
:1008E00030570500A0860100589EFFFFE0930400EA
:1008F0006079FEFF30FEFEFF70B504460D4600260F
:100900006069284000286FD0FF210131681A8D42AC
:1009100064D010DC082D3DD006DC012D28D0022D3E
:100920002CD0042D7BD12FE0102D39D0202D3DD09F
:10093000402D74D140E07F221202811A904268D08B
:100940000DDCFF38013800284FD0FF38FF3802385F
:10095000002850D001218902401A60D151E00120C5
:10096000C003081A2ED001210904401A57D12FE0E4
:10097000A0682E4900F0ACF9064652E0E068032179
:1009800000F0A6F906464CE0E068082100F0A0F966
:10099000064646E0E068102100F09AF9064640E07D
:1009A0002069032100F094F906463AE02069082105
:1009B00000F08EF9064634E02069102100F088F935
:1009C00006462EE06068082100F082F9064628E01D
:1009D0006068102100F07CF9064622E0A069012140
:1009E00000F076F906461CE01CE0A069022100F048
:1009F0006FF9064615E0A069042100F069F9064682
:100A00000FE0A069702100F063F9064609E006E0F6
:100A1000FFE76068042100F05BF9064601E000266C
:100A200000BF00E00026304670BD0000010101005B
:100A3000002A03D043690B43436102E043698B43BF
:100A40004361704730B50246002000231468022538
:100A5000AC431460146801252C43146000E05B1C57
:100A60005468E407E40F002C02D13C4CA342F6D1B9
:100A70005468E407E40F002C01D100206DE08C796C
:100A8000012C04D1146880252C43146003E0146801
:100A90008025AC431460CC79012C04D11468402526
:100AA0002C43146003E014684025AC4314600C7AB6
:100AB000012C04D1146820252C43146003E0146831
:100AC0002025AC4314604C7A012C04D11468102505
:100AD0002C43146003E014681025AC4314608C7A36
:100AE000012C04D1146808252C43146003E0146819
:100AF0000825AC431460CC7A012C04D11468042579
:100B00002C43146003E014680425AC4314608C7813
:100B1000A407CD782D062C430D792D042C434D7957
:100B20002D052C430D886D1E2C43D4611468640878
:100B300064001460002300E05B1C5468E407E40FC9
:100B4000002C02D0054CA342F6D15468E407E40F10
:100B5000002C01D0002000E0012030BDFFFFFF008D
:100B600008B51E216846017001214170817000F0B6
:100B70007DF908BD10B50C010346FF33B1331B5995
:100B8000042423401372137A002B07D10C0103466F
:100B9000FF33B1331B595B0D136006E00C010346B4
:100BA000FF33B1331B59DB0853600C010346FF339D
:100BB000B1331B590224234053720C010346FF3307
:100BC000B133E3185B681B071B0F93720C010346DC
:100BD000FF33B133E3185B681B041B0ED3740C01A5
:100BE0000346FF33B133E3189B68D3720C0103460D
:100BF000FF33B133E3189B681B041C0E14730C0104
:100C00000346FF33B133E3189B681B021C0E547379
:100C10000C010346FF33B133E3189B681B0E93733B
:100C20000C010346FF33B133E318DB68D3730C01C7
:100C30000346FF33B133E318DB681B041C0E147446
:100C40000C010346FF33B133E318DB681B021C0EB3
:100C500054740C010346FF33B133E318DB681B0EF9
:100C60009374002904D1C36820242343C36003E0A4
:100C7000036920242343036110BD00218171C171E8
:100C8000017241728172C1728170C1700321017160
:100C900002214171012101807047000010B502213D
:100CA0000848FFF729FE00280BD0074A0021054815
:100CB000FFF760FF02210348FFF7C2FB0120034951
:100CC000087010BD00640040D00000201C0000200F
:100CD0000246002013460B40002B01D0012000E00B
:100CE00000207047F0B50A4600210023002400BF11
:100CF0003DE001258D402B4615681D402C469C4249
:100D000034D11579012D02D01579022D16D18568BF
:100D10004F000326BE40B543856055794E00B5406F
:100D2000866835438560858801268E40B543858079
:100D3000858896798E40B6B23543858005684F0028
:100D40000326BE40B543056015794E00B5400668E0
:100D500035430560C5684F000326BE40B543C560F6
:100D6000D5794E00B540C6683543C560491C102989
:100D7000BFD3F0BDF0B5002300244D07EE0E15469D
:100D8000B5402B46CD10AE0005462035AD594E0777
:100D9000F70E0F26BE40B543CE10B60007462037EB
:100DA000BD51CD10AE003D46AD591D432C46CD1072
:100DB000AD003E467451F0BD0185704781617047BA
:100DC00000BFFEE710B504210920C006FFF7F6FFBB
:100DD00010BD10B504210920C006FFF7EDFF10BDBE
:100DE00010B508210920C006FFF7E8FF10BD10B5B7
:100DF00008210920C006FFF7DFFF10BD10B5402114
:100E00000920C006FFF7DAFF10BD10B54021092008
:100E1000C006FFF7D1FF10BD10B580210920C00624
:100E2000FFF7CCFF10BD10B580210920C006FFF7E9
:100E3000C3FF10BD1CB50121480400F051F8CC20BF
:100E4000009001216846417101710021817169465C
:100E50000920C006FFF746FFFFF7B4FFFFF7C0FF0A
:100E6000FFF7CCFFFFF7D8FF1CBD70470021827849
:100E7000002A27D0184A03231B02D21803789B109C
:100E80009B00D15802789207D30EFF229A400B465E
:100E90009343194642789207120E03789B07DB0EA4
:100EA0009A4011430C4A03231B02D21803789B106B
:100EB0009B00D1500278D306DB0E01229A40064BEC
:100EC0001A6007E00278D306DB0E01229A40024B3B
:100ED00080331A607047000000E100E070470000B6
:100EE000002905D0054A52690243044B5A6104E0C7
:100EF000024A52698243014B5A6170470010024016
:100F0000002905D0054AD2690243044BDA6104E0A6
:100F1000024AD2698243014BDA61704700100240F5
:100F2000002905D0054A12690243044B1A6104E006
:100F3000024A12698243014B1A6170470010024055
:100F4000002905D0054A92690243044B9A6104E0E6
:100F5000024A92698243014B9A6170470010024035
:100F6000704700000CB500200190009031480068E7
:100F70000121090408432F49086000BF2D4800687B
:100F800001214904084000900198401C01900098FC
:100F9000002804D10521090301988842EED1254893
:100FA0000068012149040840002802D00120009077
:100FB00001E0002000900098012839D111201E493D
:100FC00008601C4840681B49486008464068486003
:100FD000084640687F21C90388431649486008468F
:100FE000406809210904084312494860084600681E
:100FF0000121090608430F49086000BF0D48006839
:101000000121490608400028F8D00A4840688008B5
:1010100080000849486008464068022108430549A5
:10102000486000BF034840680C2108400828F9D1F7
:101030000CBD00000010024000200240042806D130
:101040000649096904221143044A116105E0034974
:10105000096904229143014A1161704700E000E0F0
:101060007047000010B51B4800680121084319496A
:101070000860084640681849084016494860084614
:1010800000681649084013490860084600680121B5
:10109000890488430F490860084640683F210904D5
:1010A00088430C4948600846C06A00090001C862CC
:1010B0000846006BFF2154318843064908630846FF
:1010C000406B40084000486300208860FFF74AFFFB
:1010D00010BD0000001002400CB8FFF8FFFFF6FE44
:1010E00080F310887047000010B50420C043FFF75C
:1010F000A5FF084908480068FFF7A0F840B2074973
:101100000870002008567D21C900484300B20449F8
:10111000088010BD00127A0008000020CC000020DA
:10112000CE0000200146124A0023D35E0A465A43ED
:10113000104B5A6100229A611A46126901231A4320
:101140000C4B1A6100BF0B4A1069C207D20F002A6C
:1011500004D0012212040240002AF4D0054A126988
:1011600052085200034B1A6100229A617047000036
:10117000CE00002000E000E0FFF75CFEFFF7B4FFC8
:101180001D4800681D49884208D1FFF730FE7D20C8
:101190000001FFF7C7FF1A48FFF734F9002080F37A
:1011A000108800BF1748FFF7C7F9FFF712FE7D2030
:1011B0000001FFF7B7FF1EE01348007800281AD09F
:1011C000002011490870082210491148FEF7E6FF77
:1011D000002808D1FFF719FE7D200001FFF7A2FFCC
:1011E000FFF70CFE07E0FFF71EFE7D200001FFF772
:1011F00099FFFFF711FEDFE7002800081234567848
:101200000030000848E801001C000020DB0000203E
:10121000000000203412000800000020D000000070
:101220000401000804130008D00000207806000024
:10123000200100080102030405060708006CDC0217
:101240000000000000000000010203040607080976
:101250000000000401000600000703000400000570
:1012600002000600000400000900000400000A005B
:10127000000401000C00000400000F000005020043
:101280001000000401001800000502001500000411
:1012900001001E00000502001E00000401002800DD
:1012A00000040200250000040100300000040100D9
:1012B0003200000401003C00000703002900000484
:1012C00001004B0000040100500000040100640014
:1012D000000502006000000603006400000904002D
:1012E0006400000E070064000102030405060809FB
:1012F00000000000003000080000000000000000B6
:0413000000000000E9
:04000005080000C12E
:00000001FF
