:020000040800F2
:10300000D80F0020ED310008194700082F460008AE
:10301000154700085D340008275100080000000033
:103020000000000000000000000000000D4C00083F
:10303000DD3F000800000000F5480008594D000879
:10304000073200080732000807320008073200087C
:10305000073200080732000807320008073200086C
:10306000073200080732000807320008073200085C
:10307000073200080732000807320008073200084C
:10308000073200080732000807320008073200083C
:1030900061340008073200080732000807320008D0
:1030A000073200080732000807320008073200081C
:1030B000073200080732000807320008073200080C
:1030C00007320008073200080732000807320008FC
:1030D00007320008C94D000807320008073200080F
:1030E000073200080732000807320008000000001D
:1030F00000000000000000000000000000000000D0
:10310000000000000000000007320008073200083D
:1031100007320008073200080732000807320008AB
:10312000073200080732000807320008073200089B
:10313000073200080732000807320008073200088B
:10314000073200080732000807320008073200087B
:1031500000F002F800F03AF80AA090E8000C82446F
:103160008344AAF10107DA4501D100F02FF8AFF24C
:10317000090EBAE80F0013F0010F18BFFB1A43F055
:10318000010318470028000020280000103A24BF3F
:1031900078C878C1FAD8520724BF30C830C144BFBC
:1031A00004680C60704700000023002400250026FE
:1031B000103A28BF78C1FBD8520728BF30C148BF9A
:1031C0000B6070471FB51FBD10B510BD00F0D1F8E2
:1031D0001146FFF7F7FF02F06BF800F0EFF803B4C9
:1031E000FFF7F2FF03BC01F0E3FF0000094880474E
:1031F00009480047FEE7FEE7FEE7FEE7FEE7FEE7D9
:10320000FEE7FEE7FEE7FEE704480549054A064BF0
:10321000704700005D4D000851310008D8090020BA
:10322000D80F0020D80B0020D80B00207047032AAD
:1032300040F2308010F0030C00F0158011F8013BD3
:10324000BCF1020F624498BF11F801CB00F8013BBA
:1032500038BF11F8013BA2F1040298BF00F801CB7E
:1032600038BF00F8013B11F0030300F02580083A55
:10327000C0F0088051F8043B083A51F804CBA0E8AC
:103280000810F5E7121D5CBF51F8043B40F8043B01
:10329000AFF30080D20724BF11F8013B11F801CB36
:1032A00048BF11F8012B24BF00F8013B00F801CB07
:1032B00048BF00F8012B704710B5203AC0F00B80D2
:1032C000B1E81850203AA0E81850B1E81850A0E82A
:1032D0001850BFF4F5AF5FEA027C24BFB1E8185084
:1032E000A0E8185044BF18C918C0BDE810405FEAF4
:1032F000827C24BF51F8043B40F8043B08BF704770
:10330000D20728BF31F8023B48BF11F8012B28BF74
:1033100020F8023B48BF00F8012B70474FF0000235
:1033200000B5134694469646203922BFA0E80C50BB
:10333000A0E80C50B1F12001BFF4F7AF090728BF96
:10334000A0E80C5048BF0CC05DF804EB890028BF12
:1033500040F8042B08BF704748BF20F8022B11F03B
:10336000804F18BF00F8012B7047704770477047B7
:103370007047754600F02CF8AE4605006946534686
:1033800020F00700854618B020B5FFF73DFFBDE8E7
:1033900020404FF000064FF000074FF000084FF0BC
:1033A000000B21F00701AC46ACE8C009ACE8C0094D
:1033B000ACE8C009ACE8C0098D46704710B50446BA
:1033C000AFF300802046BDE81040FFF708BF0000C3
:1033D00000487047740900202DE9F041A0B006466E
:1033E0000D46174680216846FFF798FF0024AA2261
:1033F0002146641C0DF80120A81DC2B22146641CA0
:103400000DF801202146641C0DF801700DEB04003D
:103410002A463146FFF70BFF6019C4B221466846C1
:1034200001F030FF80464FEA28222046611CCCB2D2
:103430000DF8002008F0FF022046611CCCB20DF808
:10344000002055222046611CCCB20DF800202146F8
:10345000684601F01DFD20B0BDE8F08100BFFEE729
:1034600010B50221084800F0ABFA60B1074A00210C
:10347000054800F0D9FB0221034800F00BF803498E
:10348000034800F092FD10BD00640040F4000020ED
:10349000B0000020B1F5007F3AD00FDC202928D001
:1034A00006DC01291CD004291DD0082940D11DE0CB
:1034B000402921D0B1F5807F3AD126E0B1F5004F07
:1034C00031D006DCB1F5806F25D0B1F5006F2FD17A
:1034D00024E0B1F5803F12D0B1F5003F28D111E0D2
:1034E000154A826025E00822C26022E01022C260F4
:1034F0001FE0082202611CE01022026119E008228C
:10350000426016E01022426013E00422426010E0A4
:10351000042242600DE0042242600AE0002282613F
:103520000422426005E0002282610422426000E041
:1035300000BF00BF70470000010101007FB50446D5
:103540000D468DF80A4000208DF80B0001208DF803
:103550000C000020ADF80000ADF80200ADF804004A
:10356000ADF80600ADF8080001208DF80D006846A2
:1035700000F078F87FBD00003EB5044600F043FB44
:1035800000F0F4F8274800F051F8684600F0C4FB5A
:1035900000208DF806008DF807008DF80800012046
:1035A0008DF8090000208DF80A008DF80B008DF8C9
:1035B0000200204600F018F900EB40001A4911F80B
:1035C00010008DF80300204600F00EF900EB4000DB
:1035D000154901EB400040788DF80400204600F0CA
:1035E00003F900EB4000104901EB400080788DF8B2
:1035F0000500204600F0F8F800EB40000A4901EB16
:1036000040008088ADF800006946064800F071FA75
:1036100000210846FFF792FF01220221014800F035
:103620005FFA3EBD006400401A00002010B5044659
:103630000B48844209D10121480601F06DF90021AF
:103640004FF0007001F068F908E00121880601F0F0
:1036500063F900214FF0806001F05EF910BD0000B9
:103660000064004010B50021837A012202FA03F1C0
:103670003D4A126842F001023B4B1A603A4A1C3242
:1036800012688A43384B1C331A60027BCAB9364A27
:103690000C3212688A43344B0C331A604288C38858
:1036A00042EA0343304A4032847A42F83430028896
:1036B000838842EA03432C4A4032847A02EBC402F4
:1036C0005360027B012A19D1274A0C3212680A433F
:1036D000254B0C331A604288038842EA0343224A8E
:1036E0004032847A42F83430C288838842EA034305
:1036F0001D4A4032847A02EBC4025360C27A3AB95E
:10370000194A121D12688A43174B1B1D1A6006E0E6
:10371000154A121D12680A43134B1B1D1A600289B9
:1037200032B9114A143212688A430F4B14331A60AB
:103730000289012A06D10C4A143212680A430A4B44
:1037400014331A60427B012A06D1074A1C321268E0
:103750000A43054B1C331A60034A126822F0010227
:10376000014B1A6010BD00000066004008B5012141
:10377000152001F0E1F80121480601F0BDF84FF4F1
:103780000060ADF8000048208DF8030003208DF89C
:1037900002006946124800F0EAFC4FF48050ADF890
:1037A000000018208DF8030003208DF80200694600
:1037B0000B4800F0DCFC4FF48070ADF800001020E6
:1037C0008DF8030003208DF802006946054800F0DB
:1037D000CEFC4FF48071034800F054FD08BD00009A
:1037E0000008014000100140014608466D4BCA1A0E
:1037F000994277D044DC6C4BA0EB0302984272D024
:1038000022DC4CF25033A0EB030298426CD010DC67
:10381000A0F58040A0F5626000286FD0A0F51C5094
:10382000103800286CD0A0F51C501038002869D141
:10383000ACE0A2F51C501038002870D0A0F56850FC
:10384000983800285ED198E049F64043D01A9A4251
:1038500067D00BDCA2F50050A0F5E260002870D024
:10386000A0F51C50103800284CD17DE0A0F59850F0
:103870008838B0B3A0F594403838002842D16AE0C7
:103880004A4BD01A9A424DD01FDC494BA2EB0300A1
:103890009A4250D010DCA2F50050A0F5E26070B35F
:1038A000A0F50040A0F5E25058B3A0F5C040A0F547
:1038B000D470002873D141E0A0F54340503878B36C
:1038C0003B4A52421044E8B92FE03A4BC21A9842A0
:1038D0001CD00ADC384A1044F0B1384A104488B988
:1038E00017E03BE034E045E04DE03348104450B190
:1038F000314A104430B94FF0000070474CE024E0EA
:1039000047E01FE04BE04FF00100F6E74FF0020008
:10391000F3E74FF00300F0E74FF00400EDE72FE08E
:1039200006E01EE04FF00500E7E74FF00600E4E791
:103930004FF00700E1E74FF00800DEE74FF0090025
:10394000DBE714E04FF00A00D7E74FF00B00D4E7B5
:103950004FF00C00D1E74FF00D00CEE74FF00E0016
:10396000CBE74FF00F00C8E74FF01000C5E74FF06E
:103970001100C2E74FF01200BFE74FF01300BCE7A1
:103980004FF01400B9E74FF01500B6E74FF01600FE
:10399000B3E74FF01700B0E74FF01800ADE74FF076
:1039A0000000AAE7F0490200803801003057050006
:1039B000A0860100E09304006079FEFF30FEFEFF68
:1039C00070B504460D46002660692840002871D075
:1039D000B5F5807F5CD010DC082D35D006DC012DDC
:1039E00020D0022D24D0042D72D127E0102D31D00B
:1039F000202D35D0402D6BD138E0B5F5004F60D08B
:103A000009DCB5F5007F49D0B5F5806F4CD0B5F530
:103A1000006F5DD14FE0B5F5803F2DD0B5F5003F8B
:103A200056D12FE0A0682D4900F0CFFA064651E0AC
:103A3000E068032100F0C9FA06464BE0E06808217F
:103A400000F0C3FA064645E0E068102100F0BDFA38
:103A500006463FE02069032100F0B7FA064639E048
:103A60002069082100F0B1FA064633E020691021F0
:103A700000F0ABFA06462DE06068082100F0A5FAD8
:103A8000064627E06068102100F09FFA064621E014
:103A9000A069012100F099FA06461BE0A069022105
:103AA00000F093FA064615E0A069042100F08DFAB3
:103AB00006460FE00FE0A069702100F086FA064686
:103AC00008E06068042100F080FA064602E0FFE7A3
:103AD000002600BF00E00026304670BD0101010055
:103AE0001AB143690B43436102E043698B4343616D
:103AF000704730B5024600200023146824F0020409
:103B00001460146844F00104146000E05B1C546805
:103B100004F001041CB94FF6FF74A342F6D15468B7
:103B200004F001040CB900206CE08C79012C04D164
:103B3000146844F08004146003E0146824F08004E6
:103B40001460CC79012C04D1146844F04004146052
:103B500003E0146824F0400414600C7A012C04D1B2
:103B6000146844F02004146003E0146824F0200476
:103B700014604C7A012C04D1146844F010041460D1
:103B800003E0146824F0100414608C7A012C04D132
:103B9000146844F00804146003E0146824F0080476
:103BA0001460CC7A012C04D1146844F0040414602D
:103BB00003E0146824F0040414608C78A407CD7822
:103BC00044EA05640D7944EA05444D7944EA055414
:103BD0000D886D1E2C43D461146824F00104146018
:103BE000002300E05B1C546804F001041CB14FF694
:103BF000FF74A342F6D1546804F001040CB1002014
:103C000000E0012030BD08B514208DF8000001202F
:103C10008DF8010000208DF8020001208DF80300CE
:103C2000684600F07BFD08BD10B500F5D87303EBC6
:103C300001131B6803F004031372137A53B900F5E0
:103C4000D87303EB01131B6840F2FF7404EA53536B
:103C5000136009E000F5D87303EB01131B686FF0E4
:103C6000604404EAD303536000F5D87303EB0113F7
:103C70001B6803F00203537200F5D87303EB0113C2
:103C80005B6803F00F03937200F5D87303EB011325
:103C90005B681B0AD37400F5D87303EB01139B68B0
:103CA000D37200F5D87303EB01139B681C0A1473DD
:103CB00000F5D87303EB01139B681C0C547300F5DB
:103CC000D87303EB01139B681B0E937300F5D87335
:103CD00003EB0113DB68D37300F5D87303EB011317
:103CE000DB681C0A147400F5D87303EB0113DB685E
:103CF0001C0C547400F5D87303EB0113DB681B0E26
:103D0000937421B9C36843F02003C36003E00369DF
:103D100043F02003036110BD00218171C171017264
:103D200041728172C1728170C170032101710221DF
:103D3000417101210180704710B50246002093684F
:103D400003F08063B3F1806F00D110E0936803F05B
:103D50000063B3F1006F01D1012008E0936803F024
:103D60008053B3F1805F01D1022000E004200428D9
:103D700074D002F5C07303EB00131B6803F0010459
:103D800002F5C07303EB00131C600B7A7BB94B7A0E
:103D90000C8843EA445302F5C07404EB0014246811
:103DA000234302F5C07404EB0014236010E00B7A87
:103DB0004C6843EAC4034C7A234302F5C07404EB15
:103DC00000142468234302F5C07404EB001423603C
:103DD0008B7A03F00F038B7202F5C07303EB0013B1
:103DE0005B6823F00F0402F5C07303EB00135C6003
:103DF00002F5C07303EB00135B688C7A234302F572
:103E0000C07404EB001463608B7B1C064B7B44EA9C
:103E100003440B7B44EA0323CC7A234302F5C074AA
:103E200004EB0014A3608B7C1C064B7C44EA034427
:103E30000B7C44EA0323CC7B234302F5C07404EBE0
:103E40000014E36002F5C07303EB00131B6843F03A
:103E5000010402F5C07303EB00131C6010BD0000E9
:103E600010B50246002321B1012907D002290FD144
:103E700009E090681D4C00EA04030BE090681C4CBC
:103E800000EA040306E090681A4C00EA040301E02B
:103E9000002300BF00BF184C181BA34216D007DC3C
:103EA00083B16FF08060184470B1022818D111E01E
:103EB000B0F5007F10D0114C204448B1B0F5003F60
:103EC0000ED10BE002230DE000230BE0002309E0FC
:103ED000002307E0012305E0012303E0012301E0C3
:103EE000002300BF00BFD8B210BD000003000004D3
:103EF0000003000800000310000100080001FFF7A4
:103F000070B50446002521460948FFF715FF06460F
:103F100005E06D1C0748854201D9012070BD31467E
:103F20000348FFF79DFF0128F3D10020F6E70000CA
:103F3000006400408096980010B52522024903488D
:103F400001F082F910BD000010050020B000002033
:103F500070B504460D4600260CB9002070BDD4E9AA
:103F60000010884202D1207A01281CD1626802EB3D
:103F70008202206900EB8201284601F028F962687C
:103F800002EB8202216901EB820001F013F9606803
:103F9000401C6060E1686068884201D30020606076
:103FA0000020207201263046D8E770B505460E463F
:103FB000284601F021F904460CB9002070BD3146B5
:103FC000204601F004F90120F8E70246002002EA49
:103FD00001030BB1012000E0002070477047000092
:103FE00010B56FF0040000F0A3FE0A4800680A490B
:103FF000B0FBF1F0094908700846007800EB400179
:10400000C1EBC0104FF6FF7101EAC00004490880FF
:1040100010BD00000400002000127A00DC00002027
:10402000DE0000200149C860704700000020024007
:1040300030B5044604254FF4302000F085F80546DD
:10404000042D17D10C48006940F002000A490861AC
:1040500008464461006940F0400008614FF4302098
:1040600000F072F805460448006941F6FD71084009
:1040700001490861284630BD0020024004200B4958
:10408000C96801F0010109B101200EE00749C968C2
:1040900001F0040109B1022007E00449C96801F0F8
:1040A000100109B1032000E0042070470020024005
:1040B0000348006940F08000014908617047000032
:1040C0000020024078B506460C46042500200090EA
:1040D000E80200F039F80546042D24D113480069A0
:1040E00040F00100114908613480E80200F02CF82A
:1040F0000546042D10D1B01C0090200C00990880BA
:10410000E80200F021F805460848006941F6FE7112
:1041100008400649086106E00448006941F6FE715E
:10412000084002490861284678BD0000002002408E
:1041300002480349486003484860704723016745C7
:1041400000200240AB89EFCD00B502460423FFF703
:1041500095FF034603E0FFF791FF0346521E012B34
:1041600001D1002AF7D102B90523184600BD2DE977
:10417000F0410246002500260020002300240027ED
:1041800091F803C00CF00F0591F803C00CF0100C6F
:10419000BCF1000F03D091F802C04CEA050591F87C
:1041A00000C0BCF1000F31D0146800202BE04FF0AC
:1041B000010C0CFA00F3B1F800C00CEA03069E42B1
:1041C00020D183004FF00F0C0CFA03F7BC4305FA23
:1041D00003FC4CEA040491F803C0BCF1280F06D19B
:1041E0004FF0010C0CFA00FCC2F814C00AE091F880
:1041F00003C0BCF1480F05D14FF0010C0CFA00FCD4
:10420000C2F810C0401C0828D1D31460B1F800C017
:10421000BCF1FF0F34DD546800202EE000F1080CE3
:104220004FF0010808FA0CF3B1F800C00CEA0306DD
:104230009E4221D183004FF00F0C0CFA03F7BC43D0
:1042400005FA03FC4CEA040491F803C0BCF1280F02
:1042500005D100F1080C08FA0CF8C2F8148091F8A6
:1042600003C0BCF1480F07D100F1080C4FF0010862
:1042700008FA0CF8C2F81080401C0828CED354600D
:10428000BDE8F0814161704700B585B069460548D9
:10429000FFF75EFE012802D1684600F0BBFA05B0C8
:1042A00000BD0000B00000202DE9F34F89B0824628
:1042B00054462678677800208DF81A00059004206F
:1042C0008DF8180000208DF819008F480078B04252
:1042D00043D1A0780106E07841EA0041207941EA23
:1042E0000020617940EA0109A0790106E07941EAFC
:1042F0000041207A41EA0020617A0843834908603E
:1043000000208349086046EA071005904FEA1960CB
:104310008DF81B004FEA19418DF81C104FEA192146
:104320008DF81D108DF81E9078480068010E8DF8EC
:104330001F1076480068010C04A8017473480088B7
:10434000010A04A841747148017804A88174082006
:104350008DF81A0004A8FFF7D3FD6B484078B042EF
:104360006CD16B48006880281AD24FF0000B0EE029
:10437000A01C10F80B10664802680068401C644BD3
:104380001860644881540BF1010000F0FF0B0A989B
:10439000801E5845ECDC0A98801E802800DA04E074
:1043A0005B480068802848D300BF59480068C0F3C4
:1043B000CF0003905648007800F007000290029862
:1043C000002801DD012100E000210398084480B2AB
:1043D000019000204E49086046EA0710059000252C
:1043E00028E00020CDF81B00CDF81F00039885427F
:1043F0000FDA484800EBC5000168CDF81B10406893
:10440000CDF81F0008208DF81A0004A8FFF778FDEA
:104410000EE0404800EBC5010DF11B00029AFEF7CB
:1044200006FF0298C0B28DF81A0004A8FFF768FDD5
:10443000681C85B201988542D3DB00BF20783249E1
:10444000C978884227D1A0780106E07841EA004186
:10445000207941EA0020617908432F49086046EA43
:104460000710059008460068000E8DF81B000846EE
:104470000068010C8DF81C1027480088010A8DF88F
:104480001D10254801788DF81E1004208DF81A00A3
:1044900004A8FFF735FD20781B498978884208D1A8
:1044A00046EA0710059000208DF81A0004A8FFF7CF
:1044B00027FD207814490979884221D1A078010686
:1044C000E07841EA0041207941EA0020617940EA40
:1044D000010846EA071005904FEA18608DF81B00A6
:1044E0004FEA18418DF81C104FEA18218DF81D1065
:1044F0008DF81E8004208DF81A0004A8FFF700FD37
:104500000BB0BDE8F08F0000C4000020D0000020F8
:10451000D4000020F4070020CC0000207047704732
:104520002DE9F04705468A462C46267867783448B8
:10453000C078B04219D1A0780106E07841EA004184
:10454000207941EA0020617940EA0109207840F0B1
:10455000F000207067700020A07001220321204627
:10456000FEF73AFF484600F043FC25488078B04209
:1045700016D1207840F0F000207067700020A07005
:104580000121E1700021217101216171AA21A17134
:10459000E1712172617201220A212046FEF71CFF9F
:1045A00017480079B04228D1A0780106E07841EAA6
:1045B0000041207941EA0020617940EA0108B8F120
:1045C000553F1AD1FFF7B4FD0E49084600F07CFCB8
:1045D000FFF76EFD012080F3108800BF00BF0A487E
:1045E000006800F4E06009490843001D06490860BE
:1045F000BFF34F8F00BF00BFFEE7BDE8F0870000AC
:10460000C4000020002800080CED00E00000FA05BE
:1046100008B56946044800F08DFD022803D19DF8D5
:10462000000000F05FFA08BD08010020704700BFDD
:10463000FEE700004CF6CC400149086070470000DE
:104640000030004070B505460C4645F2555000F06C
:104650001FF8284600F010F8204600F013F800F08C
:1046600003F8FFF7E7FF70BD4AF6AA20014908608A
:10467000704700000030004001494860704700006A
:104680000030004001498860704700000030004061
:1046900001490860704700000030004000B5A1B03B
:1046A00084216846FEF73AFE0B48007940F0F0009E
:1046B0008DF80000AA208DF80200AA218DF80310C1
:1046C0008DF804108DF80510012206216846FEF7CA
:1046D00083FE21B000BD0000C400002008B5012108
:1046E000082000F029F94FF44050ADF800001020E8
:1046F0008DF8030003208DF8020069460448FFF797
:1047000036FD4FF440510248FFF7BCFD08BD0000E4
:10471000000C014000BFFEE77047000070B50021AB
:1047200000230F22C47804B3154C246804F4E06419
:10473000C4F5E064210AC1F10403CA40447804FAD4
:1047400003F184781440214309010E4C0678A155E9
:10475000047804F01F050124AC4005786D11AD000C
:1047600005F1E025C5F8004109E0047804F01F05D3
:104770000124AC40044D0678761145F8264070BD02
:104780000CED00E000E400E080E100E002490143BC
:10479000024A1160704700000000FA050CED00E0CD
:1047A0002DE9F041A2B005460C46842101A8FEF790
:1047B000B5FDE11E284600F065FD0746281910F8F2
:1047C000020C291911F8031C40EA0128B84502D04F
:1047D00022B0BDE8F081A8788DF80400A21FE91C82
:1047E0000DF10500FEF723FD094E0BE09DF80400D6
:1047F0003178884205D1A01FC1B20DF10500726861
:104800009047083670680028F0D100BFE0E700004C
:104810005459000870B5A2B00446207900F00F0585
:10482000A088C0F30716842101A8FEF777FD2F4862
:104830008078A84223D145F0F0008DF804008DF86F
:104840000560E07A8DF80600217B8DF80710617B0A
:104850008DF80810A17B8DF80910E17B8DF80A1006
:10486000217C8DF80B10617C8DF80C10A17C8DF8EB
:104870000D1002220A2101A8FEF7AEFD33E01B480D
:104880000079A84217D145F0F0008DF804008DF8AA
:104890000560E07A8DF80600217B8DF80710617BBA
:1048A0008DF80810A17B8DF809100222062101A8BD
:1048B000FEF792FD17E00D48C078A84205D1E07AD6
:1048C00018B90B480068FEF757FE45F0F0008DF868
:1048D00004008DF80560E07A8DF8060002220321BD
:1048E00001A8FEF779FD22B070BD0000C4000020D1
:1048F000CC0000207047000029B1064AD26902436B
:10490000044BDA6104E0034AD2698243014BDA6165
:10491000704700000010024029B1064A12690243A4
:10492000044B1A6104E0034A12698243014B1A6185
:10493000704700000010024029B1064A9269024304
:10494000044B9A6104E0034A92698243014B9A61E5
:1049500070470000001002402DE9F04100210022C4
:10496000002500230026002400278C46DFF8608104
:10497000D8F8048008F00C0121B1042907D00829D7
:1049800059D109E0DFF84C81C0F8008058E0DFF829
:104990004481C0F8008053E0DFF83481D8F8048007
:1049A00008F47012DFF82881D8F8048008F4803504
:1049B000920C0D2A01D0921C00E0062235B9DFF8D6
:1049C000188102FB08F8C0F8008033E0DFF80081AE
:1049D000D8F82C8008F48036DFF8F480D8F82C80E2
:1049E00008F00F0808F1010446B9DFF8E880B8FBC9
:1049F000F4F808FB02F8C0F800801BE0DFF8D08074
:104A0000D8F82C80C8F3031808F10107DFF8C0803C
:104A1000D8F82C80C8F3032808F1020CDFF8B48022
:104A2000B8FBF7F808FB0CF8B8FBF4F808FB02F841
:104A3000C0F8008004E0DFF89C80C0F8008000BF70
:104A400000BFDFF88C80D8F8048008F0F001090975
:104A5000DFF8888018F80130D0F8008028FA03F8D1
:104A6000C0F80480DFF86880D8F8048008F4E061BA
:104A7000090ADFF8688018F80130D0F8048028FAB5
:104A800003F8C0F80880DFF84880D8F8048008F4FC
:104A90006051C90ADFF8448018F80130D0F804806A
:104AA00028FA03F8C0F80C80DFF82480D8F80480D6
:104AB00008F44041890BDFF8288018F80130D0F85D
:104AC0000C80B8FBF3F8C0F81080BDE8F08100005E
:104AD0000010024000127A0000093D00E0000020B2
:104AE000F000002010B504464448007838B9AA2CDC
:104AF00005D1012041490870414804707CE03F48DD
:104B0000007801280DD1C82C0BDA02203B4908702F
:104B10003B484470A01F3B49087000203A49087088
:104B20006AE036480078022805D10320334908702E
:104B30003348847060E03148007803281AD1314846
:104B40000078002816DD304800782F490978491C84
:104B50002D4A1170C01C2A490C542A480078401E66
:104B60002849087008460078002845D104202349C8
:104B7000087041E02148007804280DD105201F4924
:104B800008702148007820490978491C1E4A117094
:104B9000C01C1B490C542FE01848007805280DD183
:104BA0000620164908701848007817490978491CEA
:104BB000154A1170C01C12490C541DE00F480078B2
:104BC000062816D1552C14D100200C4908700E4827
:104BD00000780D490978491C0B4A1170C01C08491E
:104BE0000C5410460078C01CC1B20548FFF7D8FD30
:104BF00002E000200149087010BD0000DA0000202A
:104C000074080020D8000020D9000020704710B59B
:104C100000F002F810BD00000CB5002001900090DB
:104C20003F48006840F480303D49086000BF3C4880
:104C3000006800F4003000900198401C019000983A
:104C400018B90198B0F5A06FF1D13548006800F4AB
:104C5000003010B10120009001E000200090009889
:104C600001285CD12F48006840F010002D490860F1
:104C70000846006820F0030008600846006840F01D
:104C80000200086026484068254948600846406898
:104C900048600846406840F4806048600846C06A42
:104CA000214908401E49C8620846C06A1F49084396
:104CB0001B49C8620846006840F08060086000BF79
:104CC0001748006800F000600028F9D014484068D8
:104CD00020F47C10124948600846406840F4E8100F
:104CE00048600846006840F08070086000BF0C48CB
:104CF000006800F000700028F9D00948406820F0F2
:104D00000300074948600846406840F002004860D8
:104D100000BF0348406800F00C000828F9D10CBD22
:104D2000001002400020024000F0FEFF700601006B
:104D3000042808D14FF0E021096941F004014FF047
:104D4000E022116107E04FF0E021096921F0040140
:104D50004FF0E022116170477047000010B516480F
:104D6000006840F001001449086008464068134993
:104D700008401149486008460068114908400E493A
:104D800008600846006820F48020086008464068F3
:104D900020F4FE0048600846006820F0A05008603B
:104DA0004FF47F0088600020C862FFF730FF4FF0AB
:104DB00000600449086010BD001002400000FFF0D0
:104DC000FFFFF6FE08ED00E010B540F22551064861
:104DD00000F0E4F838B1044800F09CF9C4B2214670
:104DE000024800F0C2F910BD00380140080100205F
:104DF00010B586B00446012144F20400FFF79CFD83
:104E00004FF40070ADF8140003208DF81600182040
:104E10008DF8170005A91C48FFF7A9F94FF4806029
:104E2000ADF8140004208DF8170005A91648FFF707
:104E30009EF925208DF8000003208DF801008DF8E3
:104E4000020001208DF803006846FFF767FC01941B
:104E50000020ADF80800ADF80A00ADF80C00ADF880
:104E600010000C20ADF80E0001A9084800F0E6F88B
:104E7000012240F22551054800F0BAF8012103480B
:104E800000F073F806B010BD000801400038014082
:104E900070B505460E4640210A4800F05DF8002432
:104EA0000CE0295D074800F03AF900BF40210548B1
:104EB00000F067F80028F9D0601CC4B2B442F0DBFF
:104EC00070BD0000003801402DE9F04105460E4656
:104ED0000427FFF72DF93420FFF7A4F82C460CE047
:104EE0002046FFF7A5F80746042F04D0FFF7E0F8A7
:104EF0003846BDE8F08104F50064B442F0D9FFF70C
:104F0000D7F83846F5E700002DE9F04104460D4694
:104F100017464FF004080F48844202D20220BDE831
:104F2000F0813420FFF77EF800260DE02046296846
:104F3000FFF7C8F88046B8F1040F02D1241D2D1DDB
:104F400001E04046EBE7761CB6EB970FEED3404608
:104F5000E5E700000028000801F40072B2F5007FC8
:104F600000D100BFCA430280704721B1828942F458
:104F70000052828104E082894DF6FF731A408281DB
:104F8000704702460020B1F5007F00D100BF1388B2
:104F90000B400BB1012000E00020704770B50246C5
:104FA000002400230025002040F66A16B14200D1FB
:104FB00000BFC1F3421501F01F03012606FA03F3F7
:104FC000012D02D19689334006E0022D02D1168AC6
:104FD000334001E0968A33400C12012606FA04F4AD
:104FE0001688344013B10CB1012000E0002070BDE0
:104FF000F0B50346002400260025002040F66A177D
:10500000B94200D100BF1846C1F3421401F01F0697
:10501000012707FA06F5012C01D10C3004E0022C1F
:1050200001D1103000E014301AB107682F43076037
:1050300002E00768AF430760F0BD00002DE9F047CC
:1050400086B005460E460024A24600BFA1460027B2
:10505000B08900B100BF2F462C8A4CF6FF70044087
:10506000F08804432C82AC894EF6F3100440B088DB
:1050700031890843718908430443AC81AC8A4FF6F7
:10508000FF400440B0890443AC8201A8FFF764FCF0
:105090001F48874202D1DDF810A001E0DDF80CA026
:1050A000A88900F4004040B10AEBCA0000EB0A10E6
:1050B00031684900B0FBF1F807E00AEBCA0000EBE9
:1050C0000A1031688900B0FBF1F86420B8FBF0F0F9
:1050D00004012009642101FB1089A88900F4004023
:1050E00040B1322000EBC900B0FBF1F000F0070046
:1050F000044308E0322000EB09106421B0FBF1F01A
:1051000000F00F0004432C8106B0BDE8F0870000DA
:105110000038014001468888C0F308007047C1F399
:1051200008028280704700BFFEE700218180018075
:1051300041807047024610885388984203D1908876
:1051400008B9002070471388901DC05C0870138850
:10515000581CC31700EB93539B12A0EB83231380BF
:105160009088401E90800220ECE710B502465088DF
:10517000C31700EB93539B12A0EB83231488A34225
:1051800005D19388B3F5806F01D1012010BD5388FC
:10519000901DC1545388581CC31700EB93539B12A6
:1051A000A0EB832353809088401C90800220EDE781
:1051B00000BF7047014600224A608A7204220A72C8
:1051C00000224A72C1F80B20C1F80F20704710B5B9
:1051D00003460A4654685C60947A9C72147A1C7286
:1051E000547A5C72D2F80B40C3F80B40D2F80F40EF
:1051F000C3F80F4010BD000070B504460CB9002084
:1052000070BD207A012801D10020F9E72168481CEF
:10521000206001EB8100216901EB8005E1682068D5
:10522000884201D300202060D4E90001884201D1E6
:1052300001202072142203492846FEF73DF8284633
:10524000DEE70000405700082DE9F04104460F4614
:1052500015460020206060602072E560276100260E
:105260000AE006EB8602216901EB82001422044960
:10527000FEF722F8701CC6B2AE42F2DBBDE8F08148
:105280004057000830B50246002000230BE012F81A
:10529000015B85EA2024E4B2044D35F8144084EA29
:1052A0000024A0B25B1C8B42F1D330BD40530008F8
:1052B0001C481D4908601D480068401C40B9FEF7A5
:1052C00037FF04221A491948FFF71EFEFEF7F0FEC9
:1052D000002080F3108800BF4FF4A060FFF756FA5B
:1052E000FEF77EFEFFF7FAF940F271210420FFF786
:1052F000A9F91048FEF740F9FEF71EFE4FF4E13021
:10530000FFF776FD0C48FFF710FF01200B490860FE
:10531000FFF7C4F905E0FFF7A7F9FFF779F9FEF702
:10532000B3FFF8E70030000808ED00E000280008AF
:105330000000002048E8010008010020B08121425F
:1053400000002110422063308440A550C660E77001
:10535000088129914AA16BB18CC1ADD1CEE1EFF1A9
:105360003112100273325222B5529442F772D66251
:10537000399318837BB35AA3BDD39CC3FFF3DEE3F9
:105380006224433420040114E664C774A4448554A1
:105390006AA54BB528850995EEE5CFF5ACC58DD549
:1053A0005336722611163006D776F6669556B446F1
:1053B0005BB77AA719973887DFF7FEE79DD7BCC799
:1053C000C448E5588668A778400861180228233841
:1053D000CCC9EDD98EE9AFF9488969990AA92BB9E9
:1053E000F55AD44AB77A966A711A500A333A122A91
:1053F000FDDBDCCBBFFB9EEB799B588B3BBB1AAB39
:10540000A66C877CE44CC55C222C033C600C411CE0
:10541000AEED8FFDECCDCDDD2AAD0BBD688D499D88
:10542000977EB66ED55EF44E133E322E511E700E30
:105430009FFFBEEFDDDFFCCF1BBF3AAF599F788FD8
:105440008891A981CAB1EBA10CD12DC14EF16FE1B8
:105450008010A100C230E3200450254046706760F0
:10546000B9839893FBA3DAB33DC31CD37FE35EF308
:10547000B1029012F322D232354214527762567240
:10548000EAB5CBA5A89589856EF54FE52CD50DC558
:10549000E234C324A0148104667447642454054490
:1054A000DBA7FAB79987B8975FE77EF71DC73CD7A8
:1054B000D326F2369106B0165766767615463456E0
:1054C0004CD96DC90EF92FE9C899E9898AB9ABA9F8
:1054D0004458654806782768C018E1088238A32830
:1054E0007DCB5CDB3FEB1EFBF98BD89BBBAB9ABB48
:1054F000754A545A376A167AF10AD01AB32A923A80
:105500002EFD0FED6CDD4DCDAABD8BADE89DC98D97
:10551000267C076C645C454CA23C832CE01CC10CCF
:105520001FEF3EFF5DCF7CDF9BAFBABFD98FF89FE7
:10553000176E367E554E745E932EB23ED10EF01E1F
:1055400000002110422063308440A550C660E770FF
:10555000088129914AA16BB18CC1ADD1CEE1EFF1A7
:105560003112100273325222B5529442F772D6624F
:10557000399318837BB35AA3BDD39CC3FFF3DEE3F7
:105580006224433420040114E664C774A44485549F
:105590006AA54BB528850995EEE5CFF5ACC58DD547
:1055A0005336722611163006D776F6669556B446EF
:1055B0005BB77AA719973887DFF7FEE79DD7BCC797
:1055C000C448E5588668A77840086118022823383F
:1055D000CCC9EDD98EE9AFF9488969990AA92BB9E7
:1055E000F55AD44AB77A966A711A500A333A122A8F
:1055F000FDDBDCCBBFFB9EEB799B588B3BBB1AAB37
:10560000A66C877CE44CC55C222C033C600C411CDE
:10561000AEED8FFDECCDCDDD2AAD0BBD688D499D86
:10562000977EB66ED55EF44E133E322E511E700E2E
:105630009FFFBEEFDDDFFCCF1BBF3AAF599F788FD6
:105640008891A981CAB1EBA10CD12DC14EF16FE1B6
:105650008010A100C230E3200450254046706760EE
:10566000B9839893FBA3DAB33DC31CD37FE35EF306
:10567000B1029012F322D23235421452776256723E
:10568000EAB5CBA5A89589856EF54FE52CD50DC556
:10569000E234C324A014810466744764245405448E
:1056A000DBA7FAB79987B8975FE77EF71DC73CD7A6
:1056B000D326F2369106B0165766767615463456DE
:1056C0004CD96DC90EF92FE9C899E9898AB9ABA9F6
:1056D0004458654806782768C018E1088238A3282E
:1056E0007DCB5CDB3FEB1EFBF98BD89BBBAB9ABB46
:1056F000754A545A376A167AF10AD01AB32A923A7E
:105700002EFD0FED6CDD4DCDAABD8BADE89DC98D95
:10571000267C076C645C454CA23C832CE01CC10CCD
:105720001FEF3EFF5DCF7CDF9BAFBABFD98FF89FE5
:10573000176E367E554E745E932EB23ED10EF01E1D
:105740000000000000000000000000000000000059
:105750000000000000002110422063308440A5506A
:10576000C660E770088129914AA16BB18CC1ADD1A7
:10577000CEE1EFF13112100273325222B55294424F
:10578000F772D662399318837BB35AA3BDD39CC3F7
:10579000FFF3DEE36224433420040114E664C7749B
:1057A000A44485546AA54BB528850995EEE5CFF547
:1057B000ACC58DD55336722611163006D776F666EF
:1057C0009556B4465BB77AA719973887DFF7FEE797
:1057D0009DD7BCC7C448E5588668A77840086118BB
:1057E00002282338CCC9EDD98EE9AFF948896999E7
:1057F0000AA92BB9F55AD44AB77A966A711A500A8F
:10580000333A122AFDDBDCCBBFFB9EEB799B588B36
:105810003BBB1AABA66C877CE44CC55C222C033CDA
:10582000600C411CAEED8FFDECCDCDDD2AAD0BBD86
:10583000688D499D977EB66ED55EF44E133E322E2E
:10584000511E700E9FFFBEEFDDDFFCCF1BBF3AAFD6
:10585000599F788F8891A981CAB1EBA10CD12DC134
:105860004EF16FE18010A100C230E32004502540CA
:1058700046706760B9839893FBA3DAB33DC31CD32A
:105880007FE35EF3B1029012F322D232354214521A
:1058900077625672EAB5CBA5A89589856EF54FE576
:1058A0002CD50DC5E234C324A0148104667447646A
:1058B00024540544DBA7FAB79987B8975FE77EF7CA
:1058C0001DC73CD7D326F2369106B01657667676BA
:1058D000154634564CD96DC90EF92FE9C899E98996
:1058E0008AB9ABA94458654806782768C018E1080A
:1058F0008238A3287DCB5CDB3FEB1EFBF98BD89B6A
:10590000BBAB9ABB754A545A376A167AF10AD01A59
:10591000B32A923A2EFD0FED6CDD4DCDAABD8BADB5
:10592000E89DC98D267C076C645C454CA23C832CA9
:10593000E01CC10C1FEF3EFF5DCF7CDF9BAFBABF09
:10594000D98FF89F176E367E554E745E932EB23EF9
:10595000D10EF01E010000002145000802000000E9
:10596000A9420008030000002D46000804000000C2
:105970001F450008050000001D450008FF0000004D
:1059800000000000A459000800000020F4000000FE
:105990008C310008985A0008F4000020E40E000042
:1059A000A83100081234568800A24A040000000002
:1059B00000000000010203040607080900000009B6
:1059C00000000300000700000400010C00000D00AF
:1059D000000F00000300000C00000400000F000096
:1059E0000400000F00000500000E00000700000F7B
:1059F00000000800000D00000A00000F00000A006F
:105A0000000C00000F00000D00000F000007000058
:105A10001900000500002400000C0000140000051F
:105A200000002D00000D00001900000F00001900FB
:105A3000000D00001E00000C00002800000D0000FA
:105A40002D00000F00003200000D00004B00000F81
:105A500000006400000000000000000000000000E2
:105A600025000000100500200102030405000000CD
:105A70000000000000000000000000000000000026
:105A80000000000000000000010203040102030402
:085A90000607080902040608DC
:04000005080031516D
:00000001FF
