:020000040800F2
:1030000048070020ED310008B94000087940000869
:10301000B5400008313300083B47000800000000BD
:103020000000000000000000000000003143000824
:103030005F3E000800000000414100087D44000898
:10304000073200080732000807320008073200087C
:10305000073200080732000807320008073200086C
:10306000073200080732000807320008073200085C
:10307000073200080732000807320008073200084C
:10308000073200080732000807320008073200083C
:1030900035330008073200080732000807320008FD
:1030A000073200080732000807320008073200081C
:1030B000ED44000807320008073200080732000814
:1030C00007320008073200080732000807320008FC
:1030D00007320008354500080732000807320008AB
:1030E000073200080732000807320008000000001D
:1030F00000000000000000000000000000000000D0
:10310000000000000000000007320008073200083D
:1031100007320008073200080732000807320008AB
:10312000073200080732000807320008073200089B
:10313000073200080732000807320008073200088B
:10314000073200080732000807320008073200087B
:1031500000F002F800F03AF80AA090E8000C82446F
:103160008344AAF10107DA4501D100F02FF8AFF24C
:10317000090EBAE80F0013F0010F18BFFB1A43F055
:10318000010318470818000028180000103A24BF4F
:1031900078C878C1FAD8520724BF30C830C144BFBC
:1031A00004680C60704700000023002400250026FE
:1031B000103A28BF78C1FBD8520728BF30C148BF9A
:1031C0000B6070471FB51FBD10B510BD00F07EF835
:1031D0001146FFF7F7FF01F0FDFA00F09CF803B489
:1031E000FFF7F2FF03BC01F0AAFA0000094880478C
:1031F00009480047FEE7FEE7FEE7FEE7FEE7FEE7D9
:10320000FEE7FEE7FEE7FEE704480549054A064BF0
:103210007047000081440008513100084801002037
:10322000480700204803002048030020704740EA78
:10323000010370B59B072ED14FF00136042A2AD323
:1032400008C810C99D1B9D43121F15EAC61517D04B
:10325000D8B2E1B2401A50EA056110D198B2A1B2D9
:10326000401A50EA05410AD123F07F4024F07F4103
:10327000401A50EA052102D1180EA0EB146070BD6F
:10328000A342DBD018BA21BA884201D9012070BD0F
:103290004FF0FF3070BD0AB9002070BD10F8013B3F
:1032A00011F8014B63B1A3420AD1521E08D010F8A5
:1032B000013B11F8014B1BB1A34201D1521EEDD1CC
:1032C000181B70BD7047704770477047754600F017
:1032D0002BF8AE4605006946534620F007008546A8
:1032E00018B020B5FFF790FFBDE820404FF0000672
:1032F0004FF000074FF000084FF0000B21F00701DE
:10330000AC46ACE8C009ACE8C009ACE8C009ACE820
:10331000C0098D46704710B50446AFF300802046C3
:10332000BDE81040FFF75BBF00487047E800002091
:1033300000BFFEE710B50221084800F0ABFA58B113
:10334000074A0021054800F0D9FB0221034800F09C
:103350000BF801200349087010BD00000064004014
:10336000D400002024000020B1F5007F3AD00FDC0B
:10337000202928D006DC01291CD004291DD00829C9
:1033800040D11DE0402921D0B1F5807F3AD126E01F
:10339000B1F5004F31D006DCB1F5806F25D0B1F525
:1033A000006F2FD124E0B1F5803F12D0B1F5003F7E
:1033B00028D111E0154A826025E00822C26022E08F
:1033C0001022C2601FE0082202611CE0102202618C
:1033D00019E00822426016E01022426013E0042245
:1033E000426010E0042242600DE0042242600AE0E4
:1033F000002282610422426005E0002282610422F0
:10340000426000E000BF00BF704700000101010002
:103410007FB504460D468DF80A4000208DF80B005C
:1034200001208DF80C000020ADF80000ADF802007E
:10343000ADF80400ADF80600ADF8080001208DF8E5
:103440000D00684600F078F87FBD00003EB50446E8
:1034500000F043FB00F0F4F8274800F051F868460C
:1034600000F0E4FB00208DF806008DF807008DF8D1
:10347000080001208DF8090000208DF80A008DF861
:103480000B008DF80200204600F018F900EB400018
:103490001A4911F810008DF80300204600F00EF9CB
:1034A00000EB4000154901EB400040788DF8040026
:1034B000204600F003F900EB4000104901EB40000A
:1034C00080788DF80500204600F0F8F800EB400009
:1034D0000A4901EB40008088ADF8000069460648C3
:1034E00000F071FA00210846FFF792FF0122022145
:1034F000014800F05FFA3EBD006400402600002055
:1035000010B504460B48844209D10121480600F059
:1035100029FE00214FF0007000F024FE08E0012198
:10352000880600F01FFE00214FF0806000F01AFEB8
:1035300010BD00000064004010B50021837A012214
:1035400002FA03F13D4A126842F001023B4B1A6055
:103550003A4A1C3212688A43384B1C331A60027B89
:10356000CAB9364A0C3212688A43344B0C331A609B
:103570004288C38842EA0343304A4032847A42F8A0
:1035800034300288838842EA03432C4A4032847AEA
:1035900002EBC4025360027B012A19D1274A0C3284
:1035A00012680A43254B0C331A604288038842EAAA
:1035B0000343224A4032847A42F83430C2888388F6
:1035C00042EA03431D4A4032847A02EBC40253604C
:1035D000C27A3AB9194A121D12688A43174B1B1D49
:1035E0001A6006E0154A121D12680A43134B1B1D90
:1035F0001A60028932B9114A143212688A430F4B99
:1036000014331A600289012A06D10C4A1432126856
:103610000A430A4B14331A60427B012A06D1074A37
:103620001C3212680A43054B1C331A60034A1268A5
:1036300022F00102014B1A6010BD0000006600403C
:1036400008B50121152000F09DFD0121480600F07C
:1036500079FD4FF40060ADF8000048208DF80300BC
:1036600003208DF802006946124800F078FC4FF400
:103670008050ADF8000018208DF8030003208DF86D
:10368000020069460B4800F06AFC4FF48070ADF808
:10369000000010208DF8030003208DF80200694619
:1036A000054800F05CFC4FF48071034800F0E2FC38
:1036B00008BD000000080140001001400146084616
:1036C0006D4BCA1A994277D044DC6C4BA0EB0302D5
:1036D000984272D022DC4CF25033A0EB03029842A5
:1036E0006CD010DCA0F58040A0F5626000286FD09F
:1036F000A0F51C50103800286CD0A0F51C501038D4
:10370000002869D1ACE0A2F51C501038002870D018
:10371000A0F56850983800285ED198E049F64043FB
:10372000D01A9A4267D00BDCA2F50050A0F5E260F7
:10373000002870D0A0F51C50103800284CD17DE036
:10374000A0F598508838B0B3A0F5944038380028D8
:1037500042D16AE04A4BD01A9A424DD01FDC494B05
:10376000A2EB03009A4250D010DCA2F50050A0F565
:10377000E26070B3A0F50040A0F5E25058B3A0F5A8
:10378000C040A0F5D470002873D141E0A0F54340BB
:10379000503878B33B4A52421044E8B92FE03A4BD4
:1037A000C21A98421CD00ADC384A1044F0B1384A98
:1037B000104488B917E03BE034E045E04DE0334881
:1037C000104450B1314A104430B94FF000007047F6
:1037D0004CE024E047E01FE04BE04FF00100F6E74B
:1037E0004FF00200F3E74FF00300F0E74FF0040062
:1037F000EDE72FE006E01EE04FF00500E7E74FF0B1
:103800000600E4E74FF00700E1E74FF00800DEE7CD
:103810004FF00900DBE714E04FF00A00D7E74FF064
:103820000B00D4E74FF00C00D1E74FF00D00CEE7CE
:103830004FF00E00CBE74FF00F00C8E74FF010003D
:10384000C5E74FF01100C2E74FF01200BFE74FF09D
:103850001300BCE74FF01400B9E74FF01500B6E7CE
:103860004FF01600B3E74FF01700B0E74FF0180025
:10387000ADE74FF00000AAE7F049020080380100F0
:1038800030570500A0860100E09304006079FEFF38
:1038900030FEFEFF70B504460D46002660692840E4
:1038A000002871D0B5F5807F5CD010DC082D35D0B4
:1038B00006DC012D20D0022D24D0042D72D127E06A
:1038C000102D31D0202D35D0402D6BD138E0B5F5FD
:1038D000004F60D009DCB5F5007F49D0B5F5806FA9
:1038E0004CD0B5F5006F5DD14FE0B5F5803F2DD0E0
:1038F000B5F5003F56D12FE0A0682D4900F0A6FA9B
:10390000064651E0E068032100F0A0FA06464BE0CD
:10391000E068082100F09AFA064645E0E0681021C8
:1039200000F094FA06463FE02069032100F08EFA89
:10393000064639E02069082100F088FA064633E09F
:103940002069102100F082FA06462DE06068082107
:1039500000F07CFA064627E06068102100F076FA55
:10396000064621E0A069012100F070FA06461BE03E
:10397000A069022100F06AFA064615E0A069042158
:1039800000F064FA06460FE00FE0A069702100F035
:103990005DFA064608E06068042100F057FA064622
:1039A00002E0FFE7002600BF00E00026304670BDC1
:1039B000010101001AB143690B43436102E043690D
:1039C0008B434361704730B50246002000231468E2
:1039D00024F002041460146844F00104146000E050
:1039E0005B1C546804F001041CB94FF6FF74A34239
:1039F000F6D1546804F001040CB900206CE08C7915
:103A0000012C04D1146844F08004146003E01468AD
:103A100024F080041460CC79012C04D1146844F0A3
:103A20004004146003E0146824F0400414600C7A2D
:103A3000012C04D1146844F02004146003E01468DD
:103A400024F0200414604C7A012C04D1146844F052
:103A50001004146003E0146824F0100414608C7ADD
:103A6000012C04D1146844F00804146003E01468C5
:103A700024F008041460CC7A012C04D1146844F0BA
:103A80000404146003E0146824F0040414608C78C7
:103A9000A407CD7844EA05640D7944EA05444D79DC
:103AA00044EA05540D886D1E2C43D461146824F03B
:103AB00001041460002300E05B1C546804F001045E
:103AC0001CB14FF6FF74A342F6D1546804F0010410
:103AD0000CB1002000E0012030BD08B514208DF8A5
:103AE000000001208DF8010000208DF80200012067
:103AF0008DF80300684600F0E1FA08BD10B500F546
:103B0000D87303EB01131B6803F004031372137AD9
:103B100053B900F5D87303EB01131B6840F2FF742F
:103B200004EA5353136009E000F5D87303EB011363
:103B30001B686FF0604404EAD303536000F5D87348
:103B400003EB01131B6803F00203537200F5D873F3
:103B500003EB01135B6803F00F03937200F5D87356
:103B600003EB01135B681B0AD37400F5D87303EBF6
:103B700001139B68D37200F5D87303EB01139B68A4
:103B80001C0A147300F5D87303EB01139B681C0C1B
:103B9000547300F5D87303EB01139B681B0E9373EA
:103BA00000F5D87303EB0113DB68D37300F5D8730A
:103BB00003EB0113DB681C0A147400F5D87303EBE4
:103BC0000113DB681C0C547400F5D87303EB01136C
:103BD000DB681B0E937421B9C36843F02003C360F4
:103BE00003E0036943F02003036110BDF0B585B025
:103BF00005460E4612200090019004208DF8080022
:103C000000208DF809008DF80A60002405E0295D88
:103C10000DF10B000155601CC4B2082CF7DB68469F
:103C200000F0F8F80746384605B0F0BD0021817174
:103C3000C171017241728172C1728170C1700321C0
:103C400001710221417101210180704710B50246C6
:103C50000020936803F08063B3F1806F00D110E01F
:103C6000936803F00063B3F1006F01D1012008E015
:103C7000936803F08053B3F1805F01D1022000E02C
:103C80000420042874D002F5C07303EB00131B68F2
:103C900003F0010402F5C07303EB00131C600B7A00
:103CA0007BB94B7A0C8843EA445302F5C07404EBA9
:103CB00000142468234302F5C07404EB001423604D
:103CC00010E00B7A4C6843EAC4034C7A234302F5B4
:103CD000C07404EB00142468234302F5C07404EBA1
:103CE000001423608B7A03F00F038B7202F5C0730C
:103CF00003EB00135B6823F00F0402F5C07303EBC2
:103D000000135C6002F5C07303EB00135B688C7AF0
:103D1000234302F5C07404EB001463608B7B1C0624
:103D20004B7B44EA03440B7B44EA0323CC7A2343D2
:103D300002F5C07404EB0014A3608B7C1C064B7C62
:103D400044EA03440B7C44EA0323CC7B234302F57F
:103D5000C07404EB0014E36002F5C07303EB0013BE
:103D60001B6843F0010402F5C07303EB00131C60F1
:103D700010BD000010B50246002321B1012907D073
:103D800002290FD109E090681D4C00EA04030BE002
:103D900090681C4C00EA040306E090681A4C00EAA4
:103DA000040301E0002300BF00BF184C181BA3420E
:103DB00016D007DC83B16FF08060184470B1022820
:103DC00018D111E0B0F5007F10D0114C204448B15B
:103DD000B0F5003F0ED10BE002230DE000230BE015
:103DE000002309E0002307E0012305E0012303E0AD
:103DF000012301E0002300BF00BFD8B210BD0000C6
:103E00000300000400030008000003100001000884
:103E10000001FFF770B50446002521460948FFF769
:103E200015FF064605E06D1C0748854201D90120B3
:103E300070BD31460348FFF79DFF0128F3D10020F4
:103E4000F6E70000006400408096980002460020DB
:103E500002EA01030BB1012000E000207047704727
:103E60000149C860704700000020024004200B494F
:103E7000C96801F0010109B101200EE00749C968D4
:103E800001F0040109B1022007E00449C96801F00A
:103E9000100109B1032000E0042070470020024017
:103EA0000348006940F08000014908617047000044
:103EB0000020024078B506460C46042500200090FC
:103EC000E80200F039F80546042D24D113480069B2
:103ED00040F00100114908613480E80200F02CF83C
:103EE0000546042D10D1B01C0090200C00990880CC
:103EF000E80200F021F805460848006941F6FE7125
:103F000008400649086106E00448006941F6FE7170
:103F1000084002490861284678BD000000200240A0
:103F200002480349486003484860704723016745D9
:103F300000200240AB89EFCD00B502460423FFF715
:103F400095FF034603E0FFF791FF0346521E012B46
:103F500001D1002AF7D102B90523184600BD2DE989
:103F6000F0410246002500260020002300240027FF
:103F700091F803C00CF00F0591F803C00CF0100C81
:103F8000BCF1000F03D091F802C04CEA050591F88E
:103F900000C0BCF1000F31D0146800202BE04FF0BE
:103FA000010C0CFA00F3B1F800C00CEA03069E42C3
:103FB00020D183004FF00F0C0CFA03F7BC4305FA35
:103FC00003FC4CEA040491F803C0BCF1280F06D1AD
:103FD0004FF0010C0CFA00FCC2F814C00AE091F892
:103FE00003C0BCF1480F05D14FF0010C0CFA00FCE6
:103FF000C2F810C0401C0828D1D31460B1F800C02A
:10400000BCF1FF0F34DD546800202EE000F1080CF5
:104010004FF0010808FA0CF3B1F800C00CEA0306EF
:104020009E4221D183004FF00F0C0CFA03F7BC43E2
:1040300005FA03FC4CEA040491F803C0BCF1280F14
:1040400005D100F1080C08FA0CF8C2F8148091F8B8
:1040500003C0BCF1480F07D100F1080C4FF0010874
:1040600008FA0CF8C2F81080401C0828CED354601F
:10407000BDE8F0814161704700BFFEE708B501214E
:10408000082000F07FF84FF44050ADF800001020F9
:104090008DF8030003208DF8020069460448FFF7FD
:1040A0005EFF4FF440510248FFF7E4FF08BD0000F7
:1040B000000C014000BFFEE77047000070B5002112
:1040C00000230F22C47804B3154C246804F4E06480
:1040D000C4F5E064210AC1F10403CA40447804FA3B
:1040E00003F184781440214309010E4C0678A15550
:1040F000047804F01F050124AC4005786D11AD0073
:1041000005F1E025C5F8004109E0047804F01F0539
:104110000124AC40044D0678761145F8264070BD68
:104120000CED00E000E400E080E100E00249014322
:10413000024A1160704700000000FA050CED00E033
:104140007047000029B1064AD2690243044BDA6184
:1041500004E0034AD2698243014BDA6170470000F0
:104160000010024029B1064A12690243044B1A6149
:1041700004E0034A12698243014B1A617047000050
:104180000010024029B1064A92690243044B9A6129
:1041900004E0034A92698243014B9A617047000030
:1041A000001002402DE9F0410021002200250023EB
:1041B0000026002400278C46DFF86081D8F80480B0
:1041C00008F00C0121B1042907D0082959D109E0D0
:1041D000DFF84C81C0F8008058E0DFF84481C0F877
:1041E000008053E0DFF83481D8F8048008F47012BE
:1041F000DFF82881D8F8048008F48035920C0D2A65
:1042000001D0921C00E0062235B9DFF8188102FBCC
:1042100008F8C0F8008033E0DFF80081D8F82C807F
:1042200008F48036DFF8F480D8F82C8008F00F0806
:1042300008F1010446B9DFF8E880B8FBF4F808FBA0
:1042400002F8C0F800801BE0DFF8D080D8F82C809E
:10425000C8F3031808F10107DFF8C080D8F82C80F4
:10426000C8F3032808F1020CDFF8B480B8FBF7F8B4
:1042700008FB0CF8B8FBF4F808FB02F8C0F8008063
:1042800004E0DFF89C80C0F8008000BF00BFDFF8CA
:104290008C80D8F8048008F0F0010909DFF88880E4
:1042A00018F80130D0F8008028FA03F8C0F804802C
:1042B000DFF86880D8F8048008F4E061090ADFF8C4
:1042C000688018F80130D0F8048028FA03F8C0F8A4
:1042D0000880DFF84880D8F8048008F46051C90AE3
:1042E000DFF8448018F80130D0F8048028FA03F889
:1042F000C0F80C80DFF82480D8F8048008F440412E
:10430000890BDFF8288018F80130D0F80C80B8FB52
:10431000F3F8C0F81080BDE8F08100000010024002
:1043200000127A0000093D00C0000020D0000020EB
:10433000704710B500F002F810BD00000CB5002069
:10434000019000903F48006840F480303D4908608B
:1043500000BF3C48006800F4003000900198401C09
:104360000190009818B90198B0F5A06FF1D13548C7
:10437000006800F4003010B10120009001E000203E
:104380000090009801285CD12F48006840F0100090
:104390002D4908600846006820F0030008600846C0
:1043A000006840F0020008602648406825494860DF
:1043B0000846406848600846406840F480604860AD
:1043C0000846C06A214908401E49C8620846C06ABA
:1043D0001F4908431B49C8620846006840F08060D6
:1043E000086000BF1748006800F000600028F9D09E
:1043F0001448406820F47C10124948600846406820
:1044000040F4E81048600846006840F0807008609A
:1044100000BF0C48006800F000700028F9D009487F
:10442000406820F00300074948600846406840F0B3
:104430000200486000BF0348406800F00C000828F4
:10444000F9D10CBD001002400020024000F0FEFF38
:1044500070060100042808D14FF0E021096941F0FD
:1044600004014FF0E022116107E04FF0E0210969FB
:1044700021F004014FF0E022116170477047000005
:1044800010B51648006840F001001449086008465D
:1044900040681349084011494860084600681149BE
:1044A00008400E4908600846006820F48020086033
:1044B0000846406820F4FE0048600846006820F086
:1044C000A05008604FF47F0088600020C862FFF7AA
:1044D00030FF4FF000600449086010BD001002403A
:1044E0000000FFF0FFFFF6FE08ED00E010B501212F
:1044F000880700F00EF8012805D103490870012152
:10450000800700F003F810BD25000020CA43028296
:10451000704730B50246002000230024158A05EAC2
:104520000103958905EA010413B10CB1012000E0F3
:10453000002030BD10B540F22551044800F03CF891
:1045400018B1024800F0F4F8C4B210BD00380140C0
:104550002DE9F04104460D4617464FF004080F4878
:10456000844202D20220BDE8F0813420FFF778FCBB
:1045700000260DE020462968FFF79CFC8046B8F134
:10458000040F02D1241D2D1D01E04046EBE7761CEF
:10459000B6EB970FEED34046E5E700000028000891
:1045A00021B1828942F40052828104E082894DF671
:1045B000FF731A408281704770B5024600240023C1
:1045C0000025002040F66A16B14200D100BFC1F3B9
:1045D000421501F01F03012606FA03F3012D02D153
:1045E0009689334006E0022D02D1168A334001E05D
:1045F000968A33400C12012606FA04F416883440D9
:1046000013B10CB1012000E0002070BDF0B50346ED
:10461000002400260025002040F66A17B94200D188
:1046200000BF1846C1F3421401F01F06012707FA24
:1046300006F5012C01D10C3004E0022C01D1103020
:1046400000E014301AB107682F43076002E00768E2
:10465000AF430760F0BD00002DE9F04786B0054686
:104660000E460024A24600BFA1460027B08900B133
:1046700000BF2F462C8A4CF6FF700440F08804439C
:104680002C82AC894EF6F3100440B088318908437F
:10469000718908430443AC81AC8A4FF6FF40044063
:1046A000B0890443AC8201A8FFF77CFD1F48874214
:1046B00002D1DDF810A001E0DDF80CA0A88900F41B
:1046C000004040B10AEBCA0000EB0A103168490013
:1046D000B0FBF1F807E00AEBCA0000EB0A10316802
:1046E0008900B0FBF1F86420B8FBF0F00401200968
:1046F000642101FB1089A88900F4004040B13220F8
:1047000000EBC900B0FBF1F000F00700044308E043
:10471000322000EB09106421B0FBF1F000F00F0033
:1047200004432C8106B0BDE8F0870000003801404A
:1047300001468888C0F30800704700BFFEE70146C5
:1047400000BF704710B56FF00400FFF783FE0A4802
:1047500000680A49B0FBF1F0094908700846007882
:1047600000EB4001C1EBC0104FF6FF7101EAC00041
:104770000449088010BD00001000002000127A00DB
:10478000BC000020BE0000200146114A12884A43A6
:104790004FF0E0235A6100229A611A46126942F0F2
:1047A00001021A6100BF4FF0E022106900F001021F
:1047B0001AB100F48032002AF5D04FF0E0221269DD
:1047C00022F001024FF0E0231A6100229A61704743
:1047D000BE0000203A483B4908603B480068401C46
:1047E00040B9FFF79DFB042238493748FFF7B0FE78
:1047F000FFF756FB002080F3108800BF4FF4A06045
:10480000FFF794FCFFF79EFF4FF47A3000F06EF84C
:10481000FFF734FC2E48FEF719FE00202D490870E2
:1048200024E008212C48FFF7E1F980B901202B4949
:1048300008602B49C1F8B0014FF47A70FFF7A4FF6C
:104840000020264908602649C1F8B00105E0012092
:10485000224908602249C1F8B00140F2DC50FFF75C
:1048600093FF1C480078401C1A49087019480078CA
:104870000328D6DB23E01B48007800B30020194949
:104880000870082218491448FEF7D1FC58B90120D5
:10489000124908604FF47A70FFF776FF0020104944
:1048A000C1F8B4010BE001200C49091F08604FF466
:1048B0007A70FFF769FF00200949C1F8B001DAE713
:1048C0000030000808ED00E0002800080C0000207F
:1048D00048E801000900002001000020B4812142C5
:1048E0000080214224000020DF00002010B586B0A7
:1048F0000446012144F20400FFF744FC4FF4007029
:10490000ADF8140003208DF8160018208DF817005C
:1049100005A91C48FFF723FB4FF48060ADF8140095
:1049200004208DF8170005A91648FFF718FB25206D
:104930008DF8000003208DF801008DF802000120A1
:104940008DF803006846FFF7B9FB01940020ADF82D
:104950000800ADF80A00ADF80C00ADF810000C200E
:10496000ADF80E0001A90848FFF776FE012240F2DB
:1049700025510548FFF74AFE01210348FFF710FEC5
:1049800006B010BD0008014000380140AC490008E5
:1049900000000020D40000008C310008804A00088C
:1049A000D400002074060000A831000800010203B2
:1049B00004050607080000001234567800A24A04D5
:1049C00000000000000000000102030406070809BF
:1049D0000000000900000300000700000400010CB3
:1049E00000000D00000F00000300000C0000040098
:1049F000000F00000400000F00000500000E000082
:104A00000700000F00000800000D00000A00000F62
:104A100000000A00000C00000F00000D00000F0055
:104A2000000700001900000500002400000C000031
:104A30001400000500002D00000D00001900000FFB
:104A400000001900000D00001E00000C00002800EE
:104A5000000D00002D00000F00003200000D0000CE
:104A60004B00000F00006400000000000000000088
:104A700001020304010203040607080902040608F0
:04000005080031516D
:00000001FF
